:020000040800F2
:1000000000180020AD090008550900085D09000826
:1000100000000000000000000000000000000000E0
:10002000000000000000000000000000650900085A
:1000300000000000000000006F09000879090008B6
:100040002D0A00082D0A00082D0A00082D0A0008B4
:100050002D0A00082D0A00082D0A00082D0A0008A4
:100060002D0A00082D0A00082D0A00082D0A000894
:100070002D0A00082D0A00082D0A00082D0A000884
:100080002D0A000800000000000000002D0A0008F2
:10009000000000002D0A00082D0A00082D0A0008A3
:1000A000000000002D0A00082D0A00082D0A000893
:1000B0002D0A000800000000890900082D0A000828
:1000C00010B5064C2378002B07D1054B002B02D02E
:1000D000044800E000BF0123237010BD0C00002085
:1000E0000000000058360008044B10B5002B03D068
:1000F0000349044800E000BF10BDC04600000000F6
:100100001000002058360008002243088B4274D3A8
:1001100003098B425FD3030A8B4244D3030B8B4208
:1001200028D3030C8B420DD3FF22090212BA030C11
:100130008B4202D31212090265D0030B8B4219D3F2
:1001400000E0090AC30B8B4201D3CB03C01A524112
:10015000830B8B4201D38B03C01A5241430B8B425A
:1001600001D34B03C01A5241030B8B4201D30B0343
:10017000C01A5241C30A8B4201D3CB02C01A52416A
:10018000830A8B4201D38B02C01A5241430A8B422D
:1001900001D34B02C01A5241030A8B4201D30B0216
:1001A000C01A5241CDD2C3098B4201D3CB01C01A30
:1001B000524183098B4201D38B01C01A524143093A
:1001C0008B4201D34B01C01A524103098B4201D328
:1001D0000B01C01A5241C3088B4201D3CB00C01A95
:1001E000524183088B4201D38B00C01A524143080D
:1001F0008B4201D34B00C01A5241411A00D2014632
:10020000524110467047FFE701B5002000F006F8A4
:1002100002BDC0460029F7D076E770477047C04658
:1002200080B500AF00F004FC00F042F800F0D8F90F
:1002300000F090F800F054F900F0F4F8164B0021AB
:10024000180002F01DFC154B00229A60134B144A53
:100250001A60124B0022DA60104B02221A61114B15
:1002600032221A700F4BAA225A700F4B180001F05D
:1002700081F8031E01D000F02FFA0B4B0221180069
:1002800001F0E9F9031E01D000F026FA074B032222
:100290001A60C046FDE7C04690000020D80000204C
:1002A00046040000F0000020680000201C0100202F
:1002B00090B593B000AF14243B19180034231A00F2
:1002C000002103F09DF93B1D180010231A000021A6
:1002D00003F096F921007B1812221A607B18012284
:1002E000DA607B1801225A617B1810221A617B1890
:1002F00010229A617B1802225A627B188022120215
:100300009A627B18C0221203DA627B1800221A63F9
:100310007B18180001F03AFE031E01D000F0DCF952
:100320003B1D07221A603B1D02225A603B1D902292
:100330009A603B1D0022DA603B1D0121180002F08B
:10034000ABF9031E01D000F0C7F9C046BD4613B09B
:1003500090BD000080B584B000AF3B1D18000C2399
:100360001A00002103F04CF92C4B2D4A1A602B4B3C
:1003700000225A60294B00229A60284B0022DA6042
:10038000264B01221A61254B04225A61234B00227D
:100390001A76224B00225A76204B00229A761F4B67
:1003A0000022DA761D4BC222FF32DA611B4B00229B
:1003B0001A621A4B242200219954184B01229A6286
:1003C000164B180000F098FB031E01D000F084F9D2
:1003D0003B1D00221A603B1D802252015A603B1DCA
:1003E000802252059A603A1D0C4B1100180000F053
:1003F000C3FC031E01D000F06FF93B1D01221A60FF
:100400003A1D064B1100180000F0B6FC031E01D087
:1004100000F062F9C046BD4604B080BD280000204F
:100420000024014080B58AB000AF2B4B2B4A1A60E4
:10043000294B0A225A60284B00229A60264B002240
:10044000DA60254BA02212031A61234BE022D2036B
:100450005A61214B00221A761F4B00225A761E4BFE
:1004600000229A761C4B0022DA761B4B00221A7768
:10047000194B00225A77184B180000F08BFD031E11
:1004800001D000F029F93B0000225A613B00012213
:100490009A613B000022DA613B00882292001A60D8
:1004A0003B00882292005A603B00882292009A60AA
:1004B0003B0088229200DA603B0000221A613B0078
:1004C00001221A623A00044B1100180000F060FE8D
:1004D000C046BD460AB080BD6800002000640040F0
:1004E00080B58EB000AF2823FB18180010231A0027
:1004F000002103F085F82023FB18180008231A00B8
:10050000002103F07DF83B1D18001C231A00002178
:1005100003F076F8304B8022D2051A602E4B002271
:100520005A602D4B00229A602B4B2C4ADA602A4BE2
:1005300000221A61284B80229A61274B180002F092
:10054000F7F9031E01D000F0C7F828217B1880229C
:1005500052011A607A18204B1100180002F002FCB8
:10056000031E01D000F0B8F81B4B180002F030FA5F
:10057000031E01D000F0B0F820217B1800221A6081
:100580007B1800225A607A18134B1100180002F0F1
:10059000DFFF031E01D000F09FF83B1D60221A60B0
:1005A0003B1D00225A603B1D00229A603B1D002229
:1005B0001A61391D084B0022180002F00DFB031EC2
:1005C00001D000F089F8044B180000F085F9C0460E
:1005D000BD460EB080BDC04690000020E70300007D
:1005E00080B586B000AF3B1D180014231A0000210F
:1005F00003F006F8214B5A69204B802189020A43F7
:100600005A611E4B5A6980239B0213403B603B6832
:100610009023DB0500220821180001F099FC9023AB
:10062000DB0501225021180001F092FC3B1D8422C1
:100630001A603B1D882252035A603B1D00229A60BB
:100640003A1D9023DB051100180001F019FB3B1D3A
:1006500058221A603B1D01225A603B1D00229A60FD
:100660003B1D0022DA603A1D9023DB0511001800C3
:1006700001F006FBC046BD4606B080BD001002403A
:1006800080B582B000AF78600B4B0C4A78680021CF
:1006900000F0B6FE031E01D000F01EF8084B012248
:1006A0001A60064B1B68122B02D0054B02221A60FF
:1006B000C046BD4602B080BD14010020F8000020F5
:1006C0001C01002080B582B000AF786000F004F813
:1006D000C046BD4602B080BD80B500AF72B6C04610
:1006E000C046FDE780B582B000AF124B9A69114B4E
:1006F00001210A439A610F4B9B69012213407B60E1
:100700007B680C4BDA690B4B802149050A43DA619F
:10071000084BDA6980235B0513403B603B68064B5E
:100720001A68054B10210A431A60C046BD4602B044
:1007300080BDC046001002400000014090B58BB063
:1007400000AF786014243B19180014231A0000210C
:1007500002F056FF7B681B68194A93422BD1194B54
:100760009A69184B802189000A439A61154B9A694E
:1007700080239B0013403B613B69124B5A69114B2C
:10078000802189020A435A610E4B5A6980239B02D9
:100790001340FB60FB683B1903221A603B190322DC
:1007A0005A603B1900229A603A199023DB05110028
:1007B000180001F065FAC046BD460BB090BDC046BA
:1007C000002401400010024090B58BB000AF78606B
:1007D00014243B19180014231A00002102F010FF02
:1007E0007B681B682C4A934252D12C4BDA692B4B05
:1007F000802189040A43DA61284BDA6980239B044B
:1008000013403B613B69254B5A69244B8021890287
:100810000A435A61214B5A6980239B021340FB60B3
:10082000FB683B19802212011A603B1902225A60B0
:100830003B1901229A603B190322DA603B1904221A
:100840001A613A199023DB051100180001F018FA1B
:1008500021007B18802252011A607B1802225A6004
:100860007B1800229A607B180322DA607B1804222E
:100870001A617A189023DB051100180001F000FAC4
:10088000002201211E2001F0C9F91E2001F0DBF930
:10089000C046BD460BB090BD006400400010024051
:1008A00080B584B000AF78607B681A688023DB0570
:1008B0009A420BD1074BDA69064B01210A43DA61F0
:1008C000044BDB6901221340FB60FB68C046BD4658
:1008D00004B080BD0010024090B589B000AF7860D0
:1008E0000C243B19180014231A00002102F088FE82
:1008F0007B681A688023DB059A4224D1144B5A691D
:10090000134B802189020A435A61114B5A69802393
:100910009B021340BB60BB6821007B1820221A6039
:100920007B1802225A607B1800229A607B180022F2
:10093000DA607B1802221A617A189023DB05110015
:10094000180001F09DF9C046BD4609B090BDC046F3
:100950000010024080B500AFC046FDE780B500AF93
:10096000C046FDE780B500AFC046BD4680BD80B53E
:1009700000AFC046BD4680BD80B500AF00F0A0F816
:10098000C046BD4680BD000080B500AF034B1800D7
:1009900000F08BFEC046BD4680BDC046680000200A
:1009A00080B500AFC046BD4680BD000013488546F7
:1009B000FFF7F6FF12480168090E124A914205D16D
:1009C0001148124901601248124901601248134946
:1009D000134A002302E0D458C4500433C4188C4294
:1009E000F9D3104A104C002301E013600432A242F4
:1009F000FBD302F00DFEFFF713FCFEE7001800200A
:100A0000040000001F000000181002400100000058
:100A10000000014000000000000000200C00002049
:100A2000A83600080C00002024010020FEE700008A
:100A300080B500AF074B1A68064B10210A431A60B5
:100A4000032000F009F8FFF74DFE00231800BD4613
:100A500080BDC0460020024090B583B000AF7860F2
:100A6000144B1C68144B1B781900FA239800FFF7ED
:100A70004BFB030019002000FFF746FB03001800A2
:100A800001F0F1F8031E01D001230FE07B68032B76
:100A90000BD8796801235B420022180001F0BEF8F0
:100AA000064B7A681A60002300E001231800BD4657
:100AB00003B090BD000000200800002004000020CA
:100AC00080B500AF054B1B781A00054B1B68D21888
:100AD000034B1A60C046BD4680BDC04608000020DA
:100AE0002001002080B500AF024B1B681800BD46F6
:100AF00080BDC0462001002080B584B000AF786082
:100B00000F23FB1800221A700023BB607B68002BA8
:100B100001D1012325E17B689B6B002B0AD17B6807
:100B20000022DA637B683422002199547B68180024
:100B3000FFF704FE7B689B6B1022134000D003E19B
:100B40000F23FB181B78002B00D0FDE07B681B688F
:100B50009B680422134000D0F6E07B689B6B834ABD
:100B6000134002221A437B689A637B681B689B6868
:100B700003221340012B12D17B681B681B680122E2
:100B80001340012B09D07B681B68DA6880231B02A5
:100B90001A4080231B029A4201D1012300E0002366
:100BA000002B16D17B681B68DB6818229343190061
:100BB0007B689A687B681B680A43DA607B681B68FD
:100BC0001B699B0099087B685A687B681B680A430D
:100BD0001A617B681B68DA687B681B6864490A4095
:100BE000DA607B681B7E9A037B685B7EDB031A43BB
:100BF0007B689B7E5B031A437B689B6A012B02D058
:100C000080235B0100E000231A437B68DB681A4302
:100C10007B681B69022B01D1042300E000231A43E7
:100C20007B6824215B5C5B001343BA681343BB60A1
:100C30007B68DB7E012B15D17B689B7E002B05D169
:100C4000BB68802252021343BB600BE07B689B6B46
:100C500020221A437B689A637B68DB6B01221A436C
:100C60007B68DA637B68DA69C223FF339A4207D074
:100C70007B68DA697B681B6A1343BA681343BB60FD
:100C80007B681B68D9687B681B68BA680A43DA60AE
:100C90007B68DA6A80235B059A421BD07B68DB6A3B
:100CA000012B17D07B68DB6A022B13D07B68DB6AD1
:100CB000032B0FD07B68DB6A042B0BD07B68DB6ACD
:100CC000052B07D07B68DB6A062B03D07B68DB6AC9
:100CD000072B12D17B681B685A697B681B68072148
:100CE0008A435A617B681B6859697B68DB6A072203
:100CF0001A407B681B680A435A617B681B68DB6883
:100D00001C4A1340BA689A420BD17B680022DA630E
:100D10007B689B6B0322934301221A437B689A638F
:100D20001CE07B689B6B1222934310221A437B6862
:100D30009A637B68DB6B01221A437B68DA630F23BB
:100D4000FB1801221A7009E07B689B6B10221A4382
:100D50007B689A630F23FB1801221A700F23FB187C
:100D60001B781800BD4604B080BDC046FDFEFFFFE5
:100D70001902FEFFE7FF3F8380B584B000AF7860C3
:100D800039600F23FB1800221A700023BB607B68B8
:100D9000DA6A80235B059A4211D07B68DB6A012BFB
:100DA0000DD07B68DB6A022B09D07B68DB6A032BE2
:100DB00005D07B68DB6A042B01D07B68DB6A7B682B
:100DC00034229B5C012B01D10223D0E07B683422CA
:100DD000012199547B681B689B680422134000D052
:100DE000B4E03B685B68644A934200D182E07B6870
:100DF0001B68996A3B681B6801229A407B681B68E4
:100E00000A439A627B68DA6A80235B059A4237D08C
:100E10007B68DB6A012B33D07B68DB6A022B2FD027
:100E20007B68DB6A032B2BD07B68DB6A042B27D023
:100E30007B68DB6A052B23D07B68DB6A062B1FD01F
:100E40007B68DB6A072B1BD03B689A687B681B6852
:100E50005B6907210B409A4212D07B681B685A6974
:100E60007B681B6807218A435A617B681B68596944
:100E70003B689B6807221A407B681B680A435A61DB
:100E80003B681B68102B07D03B681B68112B03D0F5
:100E90003B681B68122B63D1384B19683B681B6891
:100EA000102B09D03B681B68112B02D18023DB0378
:100EB00004E080235B0401E080231B042F4A0B43E2
:100EC00013603B681B68102B4AD12D4B1B682D49C2
:100ED0001800FFF719F903001A0013009B009B1874
:100EE0005B00BB6002E0BB68013BBB60BB68002BE2
:100EF000F9D135E07B681B689A6A3B681B68012161
:100F000099400B00D9437B681B680A409A623B6892
:100F10001B68102B07D03B681B68112B03D03B6864
:100F20001B68122B1CD1154B19683B681B68102BD2
:100F300007D03B681B68112B01D1134B02E0134B08
:100F400000E0134B0D4A0B40136009E07B689B6B7C
:100F500020221A437B689A630F23FB1801221A7020
:100F60007B683422002199540F23FB181B7818004A
:100F7000BD4604B080BDC0460110000008270140F6
:100F80000000002040420F00FFFFBFFFFFFFFFFEF9
:100F9000FFFF7FFF80B584B000AF78607B68002BD7
:100FA00001D10123F0E07B6820229B5CDBB2002BA7
:100FB00003D17B681800FFF707FC7B681B681A6881
:100FC0007B681B6801210A431A60FFF78BFD030051
:100FD000FB6013E0FFF786FD0200FB68D31A0A2BC3
:100FE0000CD97B685B6A802292021A437B685A6242
:100FF0007B682022052199540123C5E07B681B688A
:101000005B6801221340E5D07B681B681A687B6827
:101010001B6802218A431A60FFF764FD0300FB602E
:1010200013E0FFF75FFD0200FB68D31A0A2B0CD90F
:101030007B685B6A802292021A437B685A627B68F3
:1010400020220521995401239EE07B681B685B6880
:1010500002221340E5D17B681B7E012B08D17B68FF
:101060001B681A687B681B6880210A431A6007E0C6
:101070007B681B681A687B681B6880218A431A603A
:101080007B685B7E012B08D17B681B681A687B68D4
:101090001B6840210A431A6007E07B681B681A68D6
:1010A0007B681B6840218A431A607B689B7E012B0A
:1010B00008D17B681B681A687B681B6820210A437B
:1010C0001A6007E07B681B681A687B681B68202130
:1010D0008A431A607B68DB7E012B08D17B681B6822
:1010E0001A687B681B6810218A431A6007E07B68D6
:1010F0001B681A687B681B6810210A431A607B68AA
:101100001B7F012B08D17B681B681A687B681B68F2
:1011100008210A431A6007E07B681B681A687B682D
:101120001B6808218A431A607B685B7F012B08D10A
:101130007B681B681A687B681B6804210A431A6075
:1011400007E07B681B681A687B681B6804218A4378
:101150001A607B689A687B68DB681A437B681B6946
:101160001A437B685B691A4311007B685B685A1EEF
:101170007B681B680A43DA617B6800225A627B68DD
:1011800020220121995400231800BD4604B080BDDF
:1011900080B586B000AF786039607B681B687B6182
:1011A00013203B187A682021525C1A700200BB1889
:1011B0001B78012B04D0BB181B78022B00D0CDE08C
:1011C0007A6980239B00D35801221A4311007A695F
:1011D00080239B00D1503B685B691F221340012292
:1011E0009A401300FB607A6987239B00D358FA6802
:1011F000D2431A4011007A6987239B00D1503B6883
:10120000DB69002B29D17A6983239B00D358FA68C4
:10121000D2431A4011007A6983239B00D1503B6866
:10122000DB6818043B685B681B04190C3B685A694F
:1012300001437B694832D200D1503B689B68190456
:101240003B681B681B041A0C3B685B690A4379699D
:101250004833DB00CB1804331A603B68DB69012B91
:1012600028D17A6983239B00D258FB681A43110066
:101270007A6983239B00D1503B681B6818043B6844
:101280005B681B04190C3B685A6901437B6948324F
:10129000D200D1503B689B6819043B68DB681B0493
:1012A0001A0C3B685B690A4379694833DB00CB1849
:1012B00004331A603B689B69002B0CD17A69812347
:1012C0009B00D358FA68D2431A4011007A698123EF
:1012D0009B00D1500AE07A6981239B00D258FB68B9
:1012E0001A4311007A6981239B00D1503B681B6926
:1012F000002B0CD17A6985239B00D358FA68D2431E
:101300001A4011007A6985239B00D1500AE07A695E
:1013100085239B00D258FB681A4311007A69852304
:101320009B00D1503B681B6A012B0AD17A69872345
:101330009B00D258FB681A4311007A6987239B00EF
:10134000D1507A6980239B00D3580122934319001E
:101350007A6980239B00D150002307E07B685B6A99
:101360008022D2021A437B685A6201231800BD46CC
:1013700006B080BD80B584B000AF78607B68202265
:101380009B5CDBB2012B2FD17B6820220221995478
:101390007B681B681A687B681B6801218A431A6096
:1013A000FFF7A0FB0300FB6013E0FFF79BFB0200CD
:1013B000FB68D31A0A2B0CD97B685B6A80229202E5
:1013C0001A437B685A627B682022052199540123C5
:1013D00012E07B681B685B6801221340E5D17B68E3
:1013E00000225A62002307E07B685B6A80221203B6
:1013F0001A437B685A6201231800BD4604B080BDC1
:1014000080B586B000AFF860B9607A603B601720A5
:101410003B18FA682021525C1A700200BB181B7836
:10142000012B04D0BB181B78022B00D007E1BB684E
:10143000002B0ED1FB681B68DB680322134017D119
:10144000FB685B6A802292031A43FB685A6201239D
:10145000FDE0FB681B681B690322134008D1FB6891
:101460005B6A802292031A43FB685A620123EEE012
:10147000FB681B68BA681B321201D35804221A4059
:101480007B689A607B689B68002B0BD1FB681B68AC
:10149000BA681B321201D3585B0D5B055A0D7B688D
:1014A0001A600AE0FB681B68BA681B321201D35845
:1014B000DB08DB00DA087B685A60FB681B68BA68E7
:1014C0001B321201D35802221A407B68DA60FB6893
:1014D0001A68BB681B331B01D31804331B6808222E
:1014E000134003D07B6808221A610BE0FB681A687E
:1014F000BB681B331B01D31804331B680F221A402F
:101500007B681A61FB681A68BB681B331B01D31820
:1015100004331B681B0AFF221A407B689A61FB6830
:101520001A68BB681B331B01D31804331B681B0CE0
:101530001B041A0C7B685A61FB681968BA68DC23C3
:101540005B0012018A18D3181B68DAB23B681A7064
:10155000FB681968BA68DC235B0012018A18D3188B
:101560001B681A0A3B680133D2B21A70FB6819680B
:10157000BA68DC235B0012018A18D3181B681A0CA6
:101580003B680233D2B21A70FB681968BA68DC2370
:101590005B0012018A18D3181B681A0E3B680333CC
:1015A000D2B21A70FB681968BA68DE235B001201B8
:1015B0008A18D3181A683B680433D2B21A70FB68D1
:1015C0001968BA68DE235B0012018A18D3181B68F9
:1015D0001A0A3B680533D2B21A70FB681968BA68F8
:1015E000DE235B0012018A18D3181B681A0C3B68B3
:1015F0000633D2B21A70FB681968BA68DE235B0042
:1016000012018A18D3181B681A0E3B680733D2B22E
:101610001A70BB68002B08D1FB681B68DA68FB688E
:101620001B6820210A43DA6007E0FB681B681A691F
:10163000FB681B6820210A431A61002307E0FB684E
:101640005B6A8022D2021A43FB685A6201231800A7
:10165000BD4606B080BD80B584B000AF786039600B
:101660000F203B187A682021525C1A700200BB18C8
:101670001B78012B03D0BB181B78022B09D17B6888
:101680001B6859697B681B683A680A435A610023E2
:1016900007E07B685B6A8022D2021A437B685A6249
:1016A00001231800BD4604B080BD80B58AB000AFEC
:1016B000786000237B627B681B685B693B627B68A8
:1016C0001B685B68FB617B681B689B68BB617B6810
:1016D0001B68DB687B617B681B681B693B617B68FF
:1016E0001B689B69FB603B6A0122134000D184E0C8
:1016F000BB690122134024D07B681B6801229A60D9
:10170000BB690222134004D07B68180000F081F905
:1017100017E0BB690422134005D07B6A80221201C6
:1017200013437B620DE0BB690822134005D07B6A3E
:101730008022520113437B6203E07B68180000F0B3
:1017400080F9BA6980235B00134028D07B681B684E
:10175000802252009A60BA6980239B00134004D013
:101760007B68180000F05DF919E0BA698023DB009E
:10177000134005D07B6A8022920113437B620EE006
:10178000BA6980231B01134005D07B6A8022D201F5
:1017900013437B6203E07B68180000F05AF9BA69D2
:1017A00080235B02134028D07B681B688022520292
:1017B0009A60BA6980239B02134004D07B681800AA
:1017C00000F037F919E0BA698023DB02134005D035
:1017D0007B6A8022120213437B620EE0BA69802387
:1017E0001B03134005D07B6A8022520213437B62A5
:1017F00003E07B68180000F034F93B6A08221340CC
:101800000CD07B691022134008D07B6A80229200A2
:1018100013437B627B681B681022DA603B6A0422F8
:1018200013400BD07B690822134007D07B681B68EC
:101830000822DA607B68180000F01BF93B6A02227C
:10184000134009D07B681B68DB680322134003D078
:101850007B681800FEF714FF3B6A402213400CD04F
:101860003B691022134008D07B6A8022D2001343C8
:101870007B627B681B6810221A613B6A202213403E
:101880000BD03B690822134007D07B681B680822F5
:101890001A617B68180000F0FCF83B6A10221340C4
:1018A00009D07B681B681B690322134003D07B6847
:1018B000180000F0E6F83A6A80239B0213400BD030
:1018C000FB691022134007D07B681B6810225A6006
:1018D0007B68180000F0E5F83A6A80235B02134049
:1018E0000BD0FB690822134007D07B681B680822D5
:1018F0005A607B68180000F0DCF83A6A80231B020B
:10190000134000D174E0FB690422134000D16BE066
:101910003A6A80235B00134007D0FB680122134022
:1019200003D07B6A012213437B623A6A80239B00C7
:10193000134007D0FB680222134003D07B6A0222C7
:1019400013437B623A6A8023DB00134007D0FB68B5
:101950000422134003D07B6A042213437B623A6A59
:1019600080231B0113403FD0FB68702213403BD003
:10197000FB6870221340602B27D02CD8502B1FD02F
:1019800029D8402B17D026D8302B0FD023D8102B96
:1019900002D0202B05D01EE07B6A082213437B6215
:1019A0001AE07B6A102213437B6215E07B6A2022D7
:1019B00013437B6210E07B6A402213437B620BE09F
:1019C0007B6A802213437B6206E07B6A802252009E
:1019D00013437B6200E0C0467B681B689A697B68A2
:1019E0001B6870218A439A617B681B6804225A60D5
:1019F0007B6A002B09D07B685A6A7B6A1A437B6832
:101A00005A627B681800FEF75DFEC046BD460AB00C
:101A100080BD80B582B000AF7860C046BD4602B0E0
:101A200080BD80B582B000AF7860C046BD4602B0D0
:101A300080BD80B582B000AF7860C046BD4602B0C0
:101A400080BD80B582B000AF7860C046BD4602B0B0
:101A500080BD80B582B000AF7860C046BD4602B0A0
:101A600080BD80B582B000AF7860C046BD4602B090
:101A700080BD80B582B000AF7860C046BD4602B080
:101A800080BD80B582B000AF7860C046BD4602B070
:101A900080BD80B582B000AF7860C046BD4602B060
:101AA00080BD80B582B000AF7860C046BD4602B050
:101AB00080BD80B582B000AF7860C046BD4602B040
:101AC00080BD000080B582B000AF0200FB1D1A701F
:101AD000FB1D1B787F2B09D8FB1D1B781A001F23C9
:101AE0001A40044B012191400A001A60C046BD46CD
:101AF00002B080BD00E100E090B583B000AF02000D
:101B00003960FB1D1A70FB1D1B787F2B28D82F4ACC
:101B1000FB1D1B785BB29B08C0339B009B58FA1DD2
:101B20001278110003220A40D200FF2191400A00DE
:101B3000D2431A4011003B689B01FF221A40FB1D53
:101B40001B78180003230340DB009A401F48FB1D4D
:101B50001B785BB29B080A43C0339B001A5031E0EC
:101B60001B4AFB1D1B7819000F230B40083B9B08E9
:101B700006339B00D31804331B68FA1D127811003A
:101B800003220A40D200FF2191400A00D2431A40AA
:101B900011003B689B01FF221A40FB1D1B781800B7
:101BA00003230340DB009A400948FB1D1B781C00FF
:101BB0000F232340083B9B080A4306339B00C318AE
:101BC00004331A60C046BD4603B090BD00E100E09A
:101BD00000ED00E080B582B000AF78607B685A1EEF
:101BE00080235B049A4201D3012310E00A4B7A68F8
:101BF000013A5A6001235B4203211800FFF77CFF82
:101C0000054B00229A60044B07221A60002318003B
:101C1000BD4602B080BDC04610E000E080B584B093
:101C200000AFB9607A600F217B18021C1A70BA6885
:101C30007B181B785BB211001800FFF75DFFC046F0
:101C4000BD4604B080BD80B582B000AF0200FB1D70
:101C50001A70FB1D1B785BB21800FFF733FFC046FC
:101C6000BD4602B080BD80B582B000AF78607B68B1
:101C70001800FFF7AFFF03001800BD4602B080BD9B
:101C800080B586B000AF7860396000237B6149E1A0
:101C90003B681B6801217A6991400A001340FB6090
:101CA000FB68002B00D13AE13B685B6803221340DC
:101CB000012B05D03B685B6803221340022B30D117
:101CC0007B689B683B617B695B0003229A40130041
:101CD000DA433B6913403B613B68DA687B695B0030
:101CE0009A4013003A6913433B617B683A699A60F2
:101CF0007B685B683B6101227B699A401300DA4391
:101D00003B6913403B613B685B681B0901221A4039
:101D10007B699A4013003A6913433B617B683A69D7
:101D20005A603B685B6803221340032B17D07B6823
:101D3000DB683B617B695B0003229A401300DA4356
:101D40003B6913403B613B689A687B695B009A4042
:101D500013003A6913433B617B683A69DA603B6878
:101D60005B6803221340022B23D17B69DA087B686E
:101D700008329200D3583B617B69072213409B00D5
:101D80000F229A401300DA433B6913403B613B68E2
:101D90001A697B6907210B409B009A4013003A693E
:101DA00013433B617B69DA087B680832920039692A
:101DB000D1507B681B683B617B695B0003229A40C2
:101DC0001300DA433B6913403B613B685B680322C5
:101DD0001A407B695B009A4013003A6913433B61E8
:101DE0007B683A691A603B685A68C0239B021340BB
:101DF00000D194E0514B9A69504B01210A439A61FA
:101E00004E4B9B6901221340BB60BB684C4A7B6907
:101E10009B0802339B009B583B617B690322134064
:101E20009B000F229A401300DA433B6913403B6149
:101E30007A689023DB059A420DD07B68414A934231
:101E400007D07B68404A934201D1022304E0052376
:101E500002E0012300E000237A6903210A40920096
:101E600093403A6913433B6135497B699B080233D0
:101E70009B003A695A50354B9B683B61FB68DA43DB
:101E80003B6913403B613B685A6880235B03134006
:101E900003D03A69FB6813433B612C4B3A699A6063
:101EA0002A4BDB683B61FB68DA433B6913403B61CB
:101EB0003B685A6880239B03134003D03A69FB6850
:101EC00013433B61214B3A69DA60204B5B683B610D
:101ED000FB68DA433B6913403B613B685A688023E7
:101EE0009B02134003D03A69FB6813433B61174BD5
:101EF0003A695A60154B1B683B61FB68DA433B69E2
:101F000013403B613B685A6880235B02134003D057
:101F10003A69FB6813433B610C4B3A691A607B6971
:101F200001337B613B681A687B69DA40131E00D07D
:101F3000AEE6C046C046BD4606B080BD00100240B9
:101F4000000001400004004800080048000401406F
:101F500080B582B000AF786008001100BB1C021C85
:101F60001A807B1C0A1C1A707B1C1B78002B04D067
:101F7000BB1C1A887B689A6103E0BB1C1A887B68CB
:101F80009A62C046BD4602B080BD000080B588B0F0
:101F900000AF78607B68002B02D1012300F076FB54
:101FA0007B681B680122134000D18EE0C54B5B6843
:101FB0000C221340042B0ED0C24B5B680C22134042
:101FC000082B17D1BF4B5A68C0235B021A408023ED
:101FD0005B029A420ED1BB4B1A6880239B021340CE
:101FE00000D171E07B685B68002B00D06CE00123BE
:101FF00000F04CFB7B685B68012B07D1B14B1A6882
:10200000B04B802149020A431A602FE07B685B686D
:10201000002B0CD1AB4B1A68AA4BAB490A401A6093
:10202000A84B1A68A74BA9490A401A601EE07B68B2
:102030005B68052B0ED1A34B1A68A24B8021C90205
:102040000A431A609F4B1A689E4B802149020A433B
:102050001A600BE09B4B1A689A4B9B490A401A6026
:10206000984B1A68974B99490A401A607B685B68DD
:10207000002B14D0FEF736FD0300BB6108E0FEF72D
:1020800031FD0200BB69D31A642B01D90323FDE2A1
:102090008C4B1A6880239B021340F0D015E0FEF7AA
:1020A00021FD0300BB6108E0FEF71CFD0200BB69D7
:1020B000D31A642B01D90323E8E2824B1A688023E8
:1020C0009B021340F0D100E0C0467B681B680222EF
:1020D000134000D16CE07B4B5B680C2213400ED0A8
:1020E000784B5B680C221340082B1FD1754B5A6844
:1020F000C0235B021A4080231B029A4216D1714B07
:102100001B680222134005D07B68DB68012B01D0DD
:102110000123BBE26B4B1B68F822934319007B68D9
:102120001B69DA00674B0A431A6041E07B68DB6891
:10213000002B24D0634B1A68624B01210A431A60BA
:10214000FEF7D0FC0300BB6108E0FEF7CBFC020009
:10215000BB69D31A022B01D9032397E2594B1B68A1
:1021600002221340F1D0574B1B68F8229343190009
:102170007B681B69DA00534B0A431A6018E0514B25
:102180001A68504B01218A431A60FEF7ABFC03002A
:10219000BB6108E0FEF7A6FC0200BB69D31A022B64
:1021A00001D9032372E2474B1B6802221340F1D18D
:1021B0007B681B680822134036D07B68DB69002BE4
:1021C00019D0404B5A6A3F4B01210A435A62FEF72D
:1021D00089FC0300BB6108E0FEF784FC0200BB69D8
:1021E000D31A022B01D9032350E2364B5B6A022239
:1021F0001340F1D018E0334B5A6A324B01218A4325
:102200005A62FEF76FFC0300BB6108E0FEF76AFC50
:102210000200BB69D31A022B01D9032336E2294BF2
:102220005B6A02221340F1D17B681B6804221340D1
:1022300000D1B5E01F203B1800221A70214BDA694B
:1022400080235B05134010D11E4BDA691D4B8021A2
:1022500049050A43DA611B4BDA6980235B051340A9
:10226000FB60FB683B1801221A70194B1A68802327
:102270005B0013401AD1164B1A68154B8021490098
:102280000A431A60FEF72EFC0300BB6108E0FEF76C
:1022900029FC0200BB69D31A642B01D90323F5E1A1
:1022A0000B4B1A6880235B001340F0D07B689B685F
:1022B000012B0FD1034B1A6A024B01210A431A6208
:1022C00036E0C04600100240FFFFFEFFFFFFFBFFAD
:1022D000007000407B689B68002B0CD1CA4B1A6AC7
:1022E000C94B01218A431A62C74B1A6AC64B0421A3
:1022F0008A431A621CE07B689B68052B0CD1C24B99
:102300001A6AC14B04210A431A62BF4B1A6ABE4BB8
:1023100001210A431A620BE0BB4B1A6ABA4B012136
:102320008A431A62B84B1A6AB74B04218A431A626D
:102330007B689B68002B14D0FEF7D4FB0300BB61C5
:1023400009E0FEF7CFFB0200BB69D31AAF4A934204
:1023500001D903239AE1AC4B1B6A02221340F0D04F
:1023600013E0FEF7BFFB0300BB6109E0FEF7BAFB19
:102370000200BB69D31AA54A934201D9032385E120
:10238000A14B1B6A02221340F0D11F23FB181B78BC
:10239000012B05D19C4BDA699B4B9D490A40DA61C0
:1023A0007B681B681022134063D07B685B69012B3C
:1023B0002AD1954B5A6B944B04210A435A63924B92
:1023C0005A6B914B01210A435A63FEF78BFB0300C2
:1023D000BB6108E0FEF786FB0200BB69D31A022B43
:1023E00001D9032352E1884B5B6B02221340F1D0E9
:1023F000854B5B6BF822934319007B689B69DA007D
:10240000814B0A435A6334E07B685B69053311D121
:102410007D4B5A6B7C4B04218A435A637A4B5B6B2E
:10242000F822934319007B689B69DA00764B0A43D4
:102430005A631EE0744B5A6B734B04210A435A6370
:10244000714B5A6B704B01218A435A63FEF74AFB6A
:102450000300BB6108E0FEF745FB0200BB69D31A2D
:10246000022B01D9032311E1674B5B6B022213405E
:10247000F1D17B681B68202213405CD0624B5B6803
:102480000C2213400C2B0ED05F4B5B680C221340C8
:10249000082B14D15C4B5A68C0235B021A40C0233E
:1024A0005B029A420BD1584B5A6B80239B0213401C
:1024B00040D07B681B6A012B3CD00123E6E07B689F
:1024C0001B6A002B1BD0504B5A6B4F4B802149028B
:1024D0000A435A63FEF706FB0300BB6108E0FEF700
:1024E00001FB0200BB69D31A022B01D90323CDE003
:1024F000454B5A6B80239B021340F0D01BE0424BAC
:102500005A6B414B43490A405A63FEF7EBFA03000A
:10251000BB6108E0FEF7E6FA0200BB69D31A022BA2
:1025200001D90323B2E0384B5A6B80239B0213403E
:10253000F0D100E0C0467B685B6A002B00D1A4E0CC
:10254000314B5B680C221340082B00D178E07B688C
:102550005B6A022B4CD12C4B1A682B4B2E490A403C
:102560001A60FEF7BFFA0300BB6108E0FEF7BAFA93
:102570000200BB69D31A022B01D9032386E0224B48
:102580001A6880239B041340F0D11F4BDB6A0F2293
:10259000934319007B681A6B1B4B0A43DA621A4B90
:1025A0005B681E4A134019007B68DA6A7B689B6A85
:1025B0001A43154B0A435A60134B1A68124B802179
:1025C00049040A431A60FEF78DFA0300BB6108E074
:1025D000FEF788FA0200BB69D31A022B01D9032344
:1025E00054E0094B1A6880239B041340F0D04CE060
:1025F000054B1A68044B08490A401A60FEF772FA44
:102600000300BB6115E0C0460010024088130000C3
:10261000FFFFFFEFFFFFFEFFFFFFFFFEFF7FC2FF99
:10262000FEF760FA0200BB69D31A022B01D903231B
:102630002CE0184B1A6880239B041340F0D124E04F
:102640007B685B6A012B01D101231FE0114B5B68A2
:102650007B61104BDB6A3B617A69C0235B021A40E5
:102660007B689B6A9A420ED13B690F221A407B68B5
:102670001B6B9A4207D17A69F0239B031A407B684F
:10268000DB6A9A4201D0012300E000231800BD4616
:1026900008B080BD0010024080B584B000AF786003
:1026A00039607B68002B01D10123BFE0614B1B68BF
:1026B000012213403A689A4211D95E4B1B680122ED
:1026C000934319005B4B3A680A431A60594B1B68E5
:1026D000012213403A689A4201D00123A6E07B68A8
:1026E0001B680222134015D07B681B68042213402C
:1026F00006D0514B5A68504BE021C9000A435A603A
:102700004D4B5B68F022934319007B689A684A4BF3
:102710000A435A607B681B68012213404CD07B68D7
:102720005B68012B07D1444B1A6880239B0213403E
:1027300020D101237AE07B685B68022B07D13E4BF6
:102740001A6880239B04134014D101236EE07B6838
:102750005B68032B07D1384B5A6B80239B021340D5
:1027600008D1012362E0344B1B680222134001D1DF
:1027700001235BE0304B5B680322934319007B68C5
:102780005A682D4B0A435A60FEF7ACF90300FB6010
:1027900009E0FEF7A7F90200FB68D31A274A934223
:1027A00001D9032342E0244B5B680C221A407B686A
:1027B0005B689B009A42ECD11E4B1B6801221340C0
:1027C0003A689A4211D21B4B1B68012293431900AD
:1027D000184B3A680A431A60164B1B6801221340D3
:1027E0003A689A4201D0012320E07B681B680422EA
:1027F000134009D0104B5B68114A134019007B68E5
:10280000DA680D4B0A435A6000F020F801000A4BC9
:102810005B681B090F2213400A4AD35C0A00DA40A6
:10282000094B1A600320FEF717F900231800BD4674
:1028300004B080BD00200240001002408813000058
:10284000FFF8FFFF703600080000002080B586B05A
:1028500000AF0023FB600023BB6000237B610023EB
:102860007B6000233B612D4B5B68FB60FB680C22A7
:1028700013400C2B46D048D8042B02D0082B03D091
:1028800043E0274B3B6143E0FB689B0C0F22134066
:10289000244AD35C7B60214BDB6A0F221340224A1F
:1028A000D35CBB60FA68C0235B021A4080235B02E2
:1028B0009A4209D1B9681A48FDF726FC03001A00AC
:1028C0007B6853437B611AE0FA68C0235B021A40BD
:1028D000C0235B029A4209D1B9681448FDF714FC81
:1028E00003001A007B6853437B6108E0B9680C4819
:1028F000FDF70AFC03001A007B6853437B617B6988
:102900003B6105E0094B3B6102E0054B3B61C04682
:102910003B691800BD4606B080BDC04600100240AD
:1029200000127A008036000890360008006CDC0245
:1029300080B582B000AF78607B68002B01D10123A5
:1029400042E07B683D229B5CDBB2002B07D17B68B9
:102950003C22002199547B681800FDF7A1FF7B6899
:102960003D22022199547B681A687B680433190060
:10297000100000F0CBFA7B684622012199547B6855
:102980003E22012199547B683F22012199547B68A2
:102990004022012199547B684122012199547B688E
:1029A0004222012199547B684322012199547B687A
:1029B0004422012199547B684522012199547B6866
:1029C0003D220121995400231800BD4602B080BD6C
:1029D00080B582B000AF78607B68002B01D1012305
:1029E00042E07B683D229B5CDBB2002B07D17B6819
:1029F0003C22002199547B68180000F039F87B686C
:102A00003D22022199547B681A687B6804331900BF
:102A1000100000F07BFA7B684622012199547B6804
:102A20003E22012199547B683F22012199547B6801
:102A30004022012199547B684122012199547B68ED
:102A40004222012199547B684322012199547B68D9
:102A50004422012199547B684522012199547B68C5
:102A60003D220121995400231800BD4602B080BDCB
:102A700080B582B000AF7860C046BD4602B080BD70
:102A800080B584B000AF786039603B68002B08D116
:102A90007B683E229B5CDBB2013B5A1E9341DBB25A
:102AA0001FE03B68042B08D17B683F229B5CDBB2B4
:102AB000013B5A1E9341DBB213E03B68082B08D15F
:102AC0007B6840229B5CDBB2013B5A1E9341DBB228
:102AD00007E07B6841229B5CDBB2013B5A1E9341BD
:102AE000DBB2002B01D001236AE03B68002B04D14C
:102AF0007B683E220221995413E03B68042B04D1E9
:102B00007B683F22022199540BE03B68082B04D1DB
:102B10007B6840220221995403E07B684122022114
:102B200099547B681B6839680122180000F0ECFC9E
:102B30007B681B68244A934209D07B681B68234A40
:102B4000934204D07B681B68214A934201D1012340
:102B500000E00023002B08D07B681B685A6C7B6860
:102B60001B68802109020A435A647B681B68164A65
:102B700093420AD07B681A688023DB059A4204D00E
:102B80007B681B68134A934211D17B681B689B6862
:102B900007221340FB60FB68062B10D07B681B6884
:102BA0001A687B681B6801210A431A6007E07B688A
:102BB0001B681A687B681B6801210A431A6000239E
:102BC0001800BD4604B080BD002C01400044014007
:102BD000004801400004004080B586B000AFF860B6
:102BE000B9607A601723FB1800221A70FB683C2238
:102BF0009B5C012B01D10223ADE0FB683C2201214B
:102C000099547B680C2B00D176E07B680C2B00D9A3
:102C100095E07B68082B4ED07B68082B00D98EE0AE
:102C20007B68002B03D07B68042B21D087E0FB68F6
:102C30001B68BA681100180000F0ECF9FB681B680B
:102C40009A69FB681B6808210A439A61FB681B6844
:102C50009A69FB681B6804218A439A61FB681B68B8
:102C60009969BB681A69FB681B680A439A616BE043
:102C7000FB681B68BA681100180000F049FAFB688D
:102C80001B689A69FB681B68802109010A439A61E5
:102C9000FB681B689A69FB681B6831490A409A61A6
:102CA000FB681B689969BB681B691A02FB681B6893
:102CB0000A439A6148E0FB681B68BA681100180073
:102CC00000F0A4FAFB681B68DA69FB681B6808213E
:102CD0000A43DA61FB681B68DA69FB681B68042138
:102CE0008A43DA61FB681B68D969BB681A69FB68AB
:102CF0001B680A43DA6127E0FB681B68BA681100A9
:102D0000180000F003FBFB681B68DA69FB681B68AE
:102D1000802109010A43DA61FB681B68DA69FB68F4
:102D20001B680F490A40DA61FB681B68D969BB68F8
:102D30001B691A02FB681B680A43DA6104E0172367
:102D4000FB1801221A70C046FB683C2200219954EE
:102D50001723FB181B781800BD4606B080BDC0467F
:102D6000FFFBFFFF80B584B000AF786039600F23B0
:102D7000FB1800221A707B683C229B5C012B01D15E
:102D80000223BCE07B683C22012199547B683D22F0
:102D9000022199547B681B689B68BB60BB687722E3
:102DA0009343BB60BB68584A1340BB607B681B6899
:102DB000BA689A603B681B6880229201934240D0B7
:102DC00080229201934200D988E0802252019342EE
:102DD00000D188E080225201934200D97EE0702B1E
:102DE00018D000D97AE0602B4FD000D976E0502B74
:102DF0003BD000D972E0402B57D000D96EE0302B89
:102E000063D06BD8202B60D068D8002B5DD0102BFE
:102E10005BD063E07B6818683B6899683B685A68D8
:102E20003B68DB6800F050FB7B681B689B68BB60FD
:102E3000BB6877221343BB607B681B68BA689A60E3
:102E400052E07B6818683B6899683B685A683B6841
:102E5000DB6800F039FB7B681B689A687B681B683D
:102E60008021C9010A439A603EE07B6818683B688C
:102E700059683B68DB681A0000F0ACFA7B681B6895
:102E80005021180000F006FB2EE07B6818683B68B4
:102E900059683B68DB681A0000F0CAFA7B681B6857
:102EA0006021180000F0F6FA1EE07B6818683B68A5
:102EB00059683B68DB681A0000F08CFA7B681B6875
:102EC0004021180000F0E6FA0EE07B681A683B68C3
:102ED0001B681900100000F0DDFA05E00F23FB1855
:102EE00001221A7000E0C0467B683D2201219954FE
:102EF0007B683C22002199540F23FB181B78180093
:102F0000BD4604B080BDC046FF00FFFF80B584B061
:102F100000AF786039607B681B68FB607B68374A6C
:102F2000934208D07A688023DB059A4203D07B68FD
:102F3000334A934208D1FB6870229343FB603B689D
:102F40005B68FA681343FB607B682C4A934214D099
:102F50007A688023DB059A420FD07B68284A934227
:102F60000BD07B68274A934207D07B68264A93425E
:102F700003D07B68254A934208D1FB68244A13405A
:102F8000FB603B68DB68FA681343FB60FB688022E8
:102F900093431A003B685B691343FB607B68FA68E4
:102FA0001A603B689A687B68DA623B681A687B68DB
:102FB0009A627B68114A934207D07B68124A934217
:102FC00003D07B68114A934203D13B681A697B683E
:102FD0001A637B6801225A617B681B6901221340D6
:102FE000012B06D17B681B69012293431A007B6881
:102FF0001A61C046BD4604B080BDC046002C0140E9
:10300000000400400020004000440140004801400E
:10301000FFFCFFFF80B586B000AF786039607B6849
:103020001B6A7B617B681B6A012293431A007B68E1
:103030001A627B685B683B617B689B69FB60FB682D
:1030400070229343FB60FB6803229343FB603B6861
:103050001B68FA681343FB607B69022293437B6120
:103060003B689B687A6913437B617B68234A934280
:1030700007D07B68224A934203D07B68214A93425F
:103080000CD17B69082293437B613B68DB687A69DA
:1030900013437B617B69042293437B617B68174AFE
:1030A000934207D07B68164A934203D07B68154A47
:1030B000934211D13B69144A13403B613B69134A67
:1030C00013403B613B685B693A6913433B613B6872
:1030D0009B693A6913433B617B683A695A607B6834
:1030E000FA689A613B685A687B685A637B687A69B8
:1030F0001A62C046BD4606B080BDC046002C0140E5
:103100000044014000480140FFFEFFFFFFFDFFFFBC
:1031100080B586B000AF786039607B681B6A7B61E0
:103120007B681B6A102293431A007B681A627B68D3
:103130005B683B617B689B69FB60FB682C4A1340C2
:10314000FB60FB682B4A1340FB603B681B681B025B
:10315000FA681343FB607B69202293437B613B68E1
:103160009B681B017A6913437B617B68224A934207
:103170000DD17B69802293437B613B68DB681B0137
:103180007A6913437B617B69402293437B617B684F
:10319000194A934207D07B68184A934203D07B6850
:1031A000174A934213D13B69164A13403B613B696E
:1031B000154A13403B613B685B699B003A691343C6
:1031C0003B613B689B699B003A6913433B617B68A9
:1031D0003A695A607B68FA689A613B685A687B680A
:1031E0009A637B687A691A62C046BD4606B080BDA4
:1031F000FF8FFFFFFFFCFFFF002C01400044014058
:1032000000480140FFFBFFFFFFF7FFFF80B586B0DE
:1032100000AF786039607B681B6A7B617B681B6AE2
:10322000314A1A407B681A627B685B683B617B6845
:10323000DB69FB60FB6870229343FB60FB68032241
:103240009343FB603B681B68FA681343FB607B6930
:10325000264A13407B613B689B681B027A691343D3
:103260007B617B68224A93420DD17B69214A1340DE
:103270007B613B68DB681B027A6913437B617B6976
:103280001D4A13407B617B68194A934207D07B68D3
:103290001A4A934203D07B68194A934213D13B697F
:1032A000184A13403B613B69174A13403B613B6836
:1032B0005B691B013A6913433B613B689B691B01D6
:1032C0003A6913433B617B683A695A607B68FA68E4
:1032D000DA613B685A687B68DA637B687A691A62EC
:1032E000C046BD4606B080BDFFFEFFFFFFFDFFFFED
:1032F000002C0140FFF7FFFFFFFBFFFF00440140F0
:1033000000480140FFEFFFFFFFDFFFFF80B586B001
:1033100000AF786039607B681B6A3B617B681B6A21
:10332000244A1A407B681A627B685B687B617B6811
:10333000DB69FB60FB68204A1340FB60FB681F4AA7
:103340001340FB603B681B681B02FA681343FB6079
:103350003B691B4A13403B613B689B681B033A690E
:1033600013433B617B68174A934207D07B68164A38
:10337000934203D07B68154A934209D17B69144A72
:1033800013407B613B685B699B017A6913437B61F6
:103390007B687A695A607B68FA68DA613B685A68C8
:1033A0007B681A647B683A691A62C046BD4606B0FB
:1033B00080BDC046FFEFFFFFFF8FFFFFFFFCFFFF59
:1033C000FFDFFFFF002C01400044014000480140A6
:1033D000FFBFFFFF80B586B000AFF860B9607A60CC
:1033E000FB681B6A7B61FB681B6A012293431A001E
:1033F000FB681A62FB689B693B613B69F02293435F
:103400003B617B681B013A6913433B617B690A227C
:1034100093437B617A69BB6813437B61FB683A69BC
:103420009A61FB687A691A62C046BD4606B080BDE3
:1034300080B586B000AFF860B9607A60FB681B6A3F
:103440007B61FB681B6A102293431A00FB681A62B7
:10345000FB689B693B613B690D4A13403B617B689C
:103460001B033A6913433B617B69A02293437B6151
:10347000BB681B017A6913437B61FB683A699A61F7
:10348000FB687A691A62C046BD4606B080BDC04678
:10349000FF0FFFFF80B584B000AF786039607B68B4
:1034A0009B68FB60FB6870229343FB603A68FB6893
:1034B000134307221343FB607B68FA689A60C04697
:1034C000BD4604B080BD000080B586B000AFF86096
:1034D000B9607A603B60FB689B687B617B69094AE5
:1034E00013407B613B681A027B681A43BB68134335
:1034F0007A6913437B61FB687A699A60C046BD466E
:1035000006B080BDFF00FFFF80B586B000AFF86059
:10351000B9607A60BB681F22134001229A401300F1
:103520007B61FB681B6A7A69D2431A40FB681A62A6
:10353000FB681A6ABB681F210B40796899400B0031
:103540001A43FB681A62C046BD4606B080BD000043
:1035500080B584B000AF786039607B683C229B5CAA
:10356000012B01D1022342E07B683C2201219954C6
:103570007B683D22022199547B681B685B68FB6075
:103580007B681B689B68BB60FB6870229343FB6091
:103590003B681B68FA681343FB607B681B68FA682A
:1035A0005A607B681B68144A93420AD07B681A6889
:1035B0008023DB059A4204D07B681B680F4A934244
:1035C0000CD1BB6880229343BB603B685B68BA68E0
:1035D0001343BB607B681B68BA689A607B683D22B6
:1035E000012199547B683C22002199540023180042
:1035F000BD4604B080BDC046002C01400004004020
:1036000003008218934200D1704719700133F9E723
:1036100070B500260C4C0D4D641BA410A64209D1B8
:10362000002600F019F80A4C0A4D641BA410A642AB
:1036300005D170BDB300EB5898470136EEE7B300F3
:10364000EB5898470136F2E7A0360008A03600088C
:10365000A4360008A0360008F8B5C046F8BC08BC7F
:103660009E467047F8B5C046F8BC08BC9E467047F9
:103670000000000000000000010203040607080922
:1036800002030405060708090A0B0C0D0E0F1010A3
:103690000102030405060708090A0B0C0D0E0F10A2
:0436A000E900000835
:0436A400C100000859
:0C36A80000127A00040000000100000085
:04000005080009AD39
:00000001FF
