:020000040800F2
:1000000000000220313B0008AD390008B539000876
:10001000BD390008C5390008CD39000800000000CE
:10002000000000000000000000000000D5390008BA
:10003000E339000800000000F1390008FF3900082A
:10004000813B0008813B0008813B0008813B0008A0
:10005000813B0008813B0008813B0008813B000890
:10006000813B0008813B0008813B00080D3A0008F5
:10007000213A0008813B0008813B0008813B0008D1
:10008000813B0008813B0008813B0008813B000860
:10009000353A0008813B0008813B0008813B00089D
:1000A000493A0008653A0008813B0008813B000896
:1000B000813B0008813B0008813B0008813B000830
:1000C000813B0008813B0008813B0008793A000829
:1000D000813B00088D3A0008813B0008813B000805
:1000E000813B0008813B0008813B0008813B000800
:1000F000813B0008813B0008813B0008813B0008F0
:10010000813B0008813B0008813B0008813B0008DF
:10011000813B0008813B0008813B0008813B0008CF
:10012000813B0008813B0008813B0008813B0008BF
:10013000813B0008813B0008813B0008813B0008AF
:10014000813B0008813B0008813B00080000000063
:10015000000000000000000000000000000000009F
:10016000000000000000000000000000813B0008CB
:10017000813B0008813B0008813B0008813B00086F
:10018000813B0008813B0008813B0008813B00085F
:10019000813B000800000000813B0008813B000813
:1001A000813B0008813B0008813B0008813B00083F
:1001B000813B0008813B0008813B0008813B00082F
:1001C000813B0008813B0008813B0008813B00081F
:0801D000813B0008813B00089F
:1001E00010B5054C237833B9044B13B10448AFF371
:1001F00000800123237010BDE801002000000000F2
:100200005403010808B5034B1BB103490348AFF37E
:10021000008008BD00000000EC010020540301082C
:1002200001F0FF01102A2BDB10F0070F08D010F8A7
:10023000013B013A8B422DD010F0070F42B3F6D1AB
:10024000F0B441EA012141EA014122F007047FF0C4
:1002500000070023F0E80256083C85EA010586EA1B
:10026000010685FA47F5A3FA87F586FA47F6A5FA57
:1002700087F68EB9EED1F0BC01F0FF0102F0070263
:1002800032B110F8013B013A83EA010313B1F8D10E
:100290000020704701387047002D06BF35460338EF
:1002A000073815F0010F07D1013015F4807F02BF28
:1002B000013015F4C03F0130F0BC0138704700BF79
:1002C00081F0004102E000BF83F0004330B54FEA07
:1002D00041044FEA430594EA050F08BF90EA020F74
:1002E0001FBF54EA000C55EA020C7FEA645C7FEA07
:1002F000655C00F0E2804FEA5454D4EB5555B8BF2A
:100300006D420CDD2C4480EA020281EA030382EA9A
:10031000000083EA010180EA020281EA0303362D2C
:1003200088BF30BD11F0004F4FEA01314FF4801CFF
:100330004CEA113102D0404261EB410113F0004F11
:100340004FEA03334CEA133302D0524263EB4303C8
:1003500094EA050F00F0A780A4F10104D5F1200E66
:100360000DDB02FA0EFC22FA05F2801841F10001C1
:1003700003FA0EF2801843FA05F359410EE0A5F195
:1003800020050EF1200E012A03FA0EFC28BF4CF0C6
:10039000020C43FA05F3C01851EBE37101F000457C
:1003A00007D54FF0000EDCF1000C7EEB00006EEB89
:1003B0000101B1F5801F1BD3B1F5001F0CD3490813
:1003C0005FEA30004FEA3C0C04F101044FEA44526A
:1003D00012F5800F80F09A80BCF1004F08BF5FEAF1
:1003E000500C50F1000041EB045141EA050130BDD1
:1003F0005FEA4C0C404141EB0101013C28BFB1F5E3
:10040000801FE9D291F0000F04BF01460020B1FA2D
:1004100081F308BF2033A3F10B03B3F120020CDA00
:100420000C3208DD02F1140CC2F10C0201FA0CF0DE
:1004300021FA02F10CE002F11402D8BFC2F1200C43
:1004400001FA02F120FA0CFCDCBF41EA0C019040F9
:10045000E41AA2BF01EB0451294330BD6FEA040442
:100460001F3C1CDA0C340EDC04F11404C4F120022D
:1004700020FA04F001FA02F340EA030021FA04F33F
:1004800045EA030130BDC4F10C04C4F1200220FA96
:1004900002F001FA04F340EA0300294630BD21FAD4
:1004A00004F0294630BD94F0000F83F4801306BF9A
:1004B00081F480110134013D4EE77FEA645C18BF8E
:1004C0007FEA655C29D094EA050F08BF90EA020F25
:1004D00005D054EA000C04BF1946104630BD91EA1D
:1004E000030F1EBF0021002030BD5FEA545C05D120
:1004F0004000494128BF41F0004130BD14F580045F
:100500003CBF01F5801130BD01F0004545F0FE41D2
:1005100041F470014FF0000030BD7FEA645C1ABF07
:10052000194610467FEA655C1CBF0B46024650EA3E
:10053000013406BF52EA033591EA030F41F400216A
:1005400030BD00BF90F0000F04BF0021704730B5F0
:100550004FF4806404F132044FF000054FF00001C5
:1005600050E700BF90F0000F04BF0021704730B586
:100570004FF4806404F1320410F0004548BF40425B
:100580004FF000013EE700BF42004FEAE2014FEAB0
:1005900031014FEA02701FBF12F07F4393F07F4F8B
:1005A00081F06051704732F07F4208BF704793F08E
:1005B0007F4F04BF41F40021704730B54FF46074A1
:1005C00001F0004521F000411CE700BF50EA0102A4
:1005D00008BF704730B54FF000050AE050EA01024D
:1005E00008BF704730B511F0004502D5404261EBBD
:1005F00041014FF4806404F132045FEA915C3FF4FE
:10060000D8AE4FF003025FEADC0C18BF03325FEA9A
:10061000DC0C18BF033202EBDC02C2F1200300FA4B
:1006200003FC20FA02F001FA03FE40EA0E0021FA70
:1006300002F11444BDE600BF70B54FF0FF0C4CF45E
:10064000E06C1CEA11541DBF1CEA135594EA0C0F10
:1006500095EA0C0F00F0DEF82C4481EA030621EA4B
:100660004C5123EA4C5350EA013518BF52EA033586
:1006700041F4801143F4801338D0A0FB02CE4FF038
:100680000005E1FB02E506F00042E0FB03E54FF068
:100690000006E1FB03569CF0000F18BF4EF0010E60
:1006A000A4F1FF04B6F5007F64F5407404D25FEA5C
:1006B0004E0E6D4146EB060642EAC62141EA55510F
:1006C0004FEAC52040EA5E504FEACE2EB4F1FD0C51
:1006D00088BFBCF5E06F1ED8BEF1004F08BF5FEACF
:1006E000500E50F1000041EB045170BD06F0004681
:1006F00046EA010140EA020081EA0301B4EB5C042E
:10070000C2BFD4EB0C0541EA045170BD41F4801125
:100710004FF0000E013C00F3AB8014F1360FDEBF4A
:10072000002001F0004170BDC4F10004203C35DA26
:100730000C341BDC04F11404C4F1200500FA05F3A9
:1007400020FA04F001FA05F240EA020001F000424A
:1007500021F0004110EBD37021FA04F642EB0601C0
:100760005EEA430E08BF20EAD37070BDC4F10C04EA
:10077000C4F1200500FA04F320FA05F001FA04F2AE
:1007800040EA020001F0004110EBD37041F100019A
:100790005EEA430E08BF20EAD37070BDC4F12005A5
:1007A00000FA05F24EEA020E20FA04F301FA05F20D
:1007B00043EA020321FA04F001F0004121FA04F2B5
:1007C00020EA020000EBD3705EEA430E08BF20EA85
:1007D000D37070BD94F0000F0FD101F000464000BF
:1007E00041EB010111F4801F08BF013CF7D041EA41
:1007F000060195F0000F18BF704703F00046520045
:1008000043EB030313F4801F08BF013DF7D043EA15
:100810000603704794EA0C0F0CEA135518BF95EACB
:100820000C0F0CD050EA410618BF52EA4306D1D152
:1008300081EA030101F000414FF0000070BD50EA71
:10084000410606BF1046194652EA430619D094EAFB
:100850000C0F02D150EA013613D195EA0C0F05D1E5
:1008600052EA03361CBF104619460AD181EA030139
:1008700001F0004141F0FE4141F470014FF00000F1
:1008800070BD41F0FE4141F4780170BD70B54FF08C
:10089000FF0C4CF4E06C1CEA11541DBF1CEA13550C
:1008A00094EA0C0F95EA0C0F00F0A7F8A4EB0504EE
:1008B00081EA030E52EA03354FEA013100F08880E5
:1008C0004FEA03334FF0805545EA131343EA1263AE
:1008D0004FEA022245EA111545EA10654FEA002663
:1008E0000EF000419D4208BF964244F1FD0404F51C
:1008F000407402D25B084FEA3202B61A65EB030578
:100900005B084FEA32024FF480104FF4002CB6EB34
:10091000020E75EB030E22BFB61A754640EA0C00B4
:100920005B084FEA3202B6EB020E75EB030E22BFF4
:10093000B61A754640EA5C005B084FEA3202B6EB35
:10094000020E75EB030E22BFB61A754640EA9C00F4
:100950005B084FEA3202B6EB020E75EB030E22BFC4
:10096000B61A754640EADC0055EA060E18D04FEA82
:10097000051545EA16754FEA06164FEAC30343EA22
:1009800052734FEAC2025FEA1C1CC0D111F4801FEF
:100990000BD141EA00014FF000004FF0004CB6E7E8
:1009A00011F4801F04BF01430020B4F1FD0C88BF87
:1009B000BCF5E06F3FF6AFAEB5EB030C04BFB6EB92
:1009C000020C5FEA500C50F1000041EB045170BD85
:1009D0000EF0004E4EEA113114EB5C04C2BFD4EBB2
:1009E0000C0541EA045170BD41F480114FF0000E36
:1009F000013C90E645EA060E8DE60CEA135594EAB2
:100A00000C0F08BF95EA0C0F3FF43BAF94EA0C0FB4
:100A10000AD150EA01347FF434AF95EA0C0F7FF429
:100A200025AF104619462CE795EA0C0F06D152EA7D
:100A300003353FF4FDAE1046194622E750EA410661
:100A400018BF52EA43067FF4C5AE50EA41047FF472
:100A50000DAF52EA43057FF4EBAE12E74FF0FF3CD7
:100A600006E000BF4FF0010C02E000BF4FF0010CA8
:100A70004DF804CD4FEA410C7FEA6C5C4FEA430C21
:100A800018BF7FEA6C5C1BD001B050EA410C0CBF70
:100A900052EA430C91EA030F02BF90EA020F0020D2
:100AA000704710F1000F91EA030F58BF994208BF39
:100AB00090422CBFD8176FEAE37040F001007047F6
:100AC0004FEA410C7FEA6C5C02D150EA013C07D14D
:100AD0004FEA430C7FEA6C5CD6D152EA033CD3D098
:100AE0005DF8040B704700BF8446104662468C4692
:100AF0001946634600E000BF01B5FFF7B7FF0028C5
:100B000048BF10F1000F01BD4DF808EDFFF7F4FFED
:100B10000CBF012000205DF808FB00BF4DF808ED78
:100B2000FFF7EAFF34BF012000205DF808FB00BF9B
:100B30004DF808EDFFF7E0FF94BF012000205DF8BD
:100B400008FB00BF4DF808EDFFF7CEFF94BF012072
:100B500000205DF808FB00BF4DF808EDFFF7C4FF6B
:100B600034BF012000205DF808FB00BF4FEA410CB4
:100B70007FEA6C5C02D150EA013C0AD14FEA430C97
:100B80007FEA6C5C02D152EA033C02D14FF00000D4
:100B900070474FF0010070474A0011D212F5001261
:100BA00011D20DD56FF47873B3EB62520ED44FEAC5
:100BB000C12343F0004343EA505323FA02F0704745
:100BC0004FF00000704750EA013002D14FF0FF3083
:100BD00070474FF0000070474FEA4102B2F1E04326
:100BE00024BFB3F5001CDCF1FE5C0DD901F0004C14
:100BF0004FEAC0024CEA5070B2F1004F40EB830064
:100C000008BF20F00100704711F0804F21D113F18F
:100C10003872BCBF01F00040704741F480114FEAC8
:100C20005252C2F11802C2F1200C10FA0CF320FA51
:100C300002F018BF40F001004FEAC1234FEAD3236E
:100C400003FA0CFC40EA0C0023FA02F34FEA4303D8
:100C5000CCE77FEA625307D150EA01331EBF4FF061
:100C6000FE4040F44000704701F0004040F0FE407C
:100C700040F40000704700BF53B94AB9002908BFCB
:100C800000281CBF4FF0FF314FF0FF3000F06AB971
:100C9000ADF1080C6DE904CE00F006F8DDF804E0D3
:100CA000DDE9022304B070472DE9F047089D0C46AA
:100CB000002B4ED194468C458646B2FA82F262D918
:100CC0004AB1C2F12003914020FA03F30CFA02FC6E
:100CD000194300FA02FE4FEA1C471FFA8CF6B1FBDB
:100CE000F7F44FEA1E4307FB141143EA014304FBE8
:100CF00006F199420AD91CEB030304F1FF3080F09E
:100D00001281994240F20F81023C6344591A1FFA42
:100D10008EF3B1FBF7F007FB101143EA014300FB30
:100D200006F69E420AD91CEB030300F1FF3180F066
:100D3000FC809E4240F2F980634402389B1B40EAEB
:100D4000044000211DB1D3400022C5E90032BDE8B6
:100D5000F0878B4205D90DB1C5E900010021084695
:100D6000F5E7B3FA83F1002946D1A34202D39042BA
:100D7000C0F0F080861A64EB03030120002DE6D05A
:100D8000C5E90063E3E7002A40F09080A1EB0C0482
:100D90004FEA1C481FFA8CF70121B4FBF8F64FEA22
:100DA0001E4308FB164443EA044307FB06F098423F
:100DB00008D91CEB030306F1FF3402D2984200F27B
:100DC000CD8026461C1A1FFA8EF3B4FBF8F008FB00
:100DD000104443EA044300FB07F79F4208D91CEB89
:100DE000030300F1FF3402D29F4200F2B08020469C
:100DF000DB1B40EA0640A5E7C1F120068B4022FA42
:100E000006F71F4320FA06FC04FA01F343EA0C0339
:100E1000F44000FA01F8380C4FEA1349B4FBF0FE35
:100E20001FFA87FC00FB1E4449EA04440EFB0CF940
:100E3000A14502FA01F20AD93C190EF1FF3A80F0FD
:100E40008480A14540F28180AEF1020E3C44A4EBC7
:100E500009041FFA83F9B4FBF0F300FB134449EAD9
:100E6000044403FB0CFCA44507D93C1903F1FF30F3
:100E700067D2A44565D9023B3C4443EA0E40A0FB3F
:100E80000293A4EB0C049C42CE469C4651D34ED018
:100E900055B1B8EB0E0364EB0C0404FA06F6CB4034
:100EA0001E43CC40C5E90064002150E7C2F1200395
:100EB00020FA03F10CFA02FC24FA03F394400C43E9
:100EC0004FEA1C4800FA02FE1FFA8CF7B3FBF8F059
:100ED00008FB1031230C43EA014300FB07F1994260
:100EE00008D91CEB030300F1FF362CD299422AD912
:100EF000023863445B1AA4B2B3FBF8F108FB113368
:100F000044EA034401FB07F3A34208D91CEB0404A1
:100F100001F1FF3613D2A34211D902396444E41A15
:100F200041EA004139E70446F0E6084606E7C845CD
:100F3000AED2B9EB020E63EB070C0138A8E73146DD
:100F4000EDE7034699E73046D4E7D6467FE76344AA
:100F500002384DE70646234608460FE7023E634443
:100F600030E700BF704700BF90B59BB000AFF8609E
:100F7000B9603B601346FB8000237B66FB68002B57
:100F800000F0E580BB68002B00F0E180FB88002BBF
:100F900000F0DD803B68002B00F0D980B7F8783096
:100FA000002B00F0D480FB6F002B00F0D080B7F84E
:100FB0008030002B00F0CB8097F98430002BC0F2FA
:100FC000C68097F98430032B00F3C18097F99830DD
:100FD000012B13D1D7F88830002B00F0B880B7F878
:100FE0008C30002B00F0B380D7F89030002B00F04D
:100FF000AE80B7F89430002B00F0A98068200EF086
:101000004DFB03467B667B6E002B00F0A0807B6E61
:10101000FA681A607B6EBA685A607B6EFA881A8129
:101020007B6E3A68DA607B6EB7F878201A827B6E46
:10103000FA6F5A617B6EB7F880201A837B6E97F83F
:1010400084209A767C6E97F98430184600F024FB51
:101050000346E36197F99830002B3DD07B6ED7F8BB
:1010600088201A627B6EB7F88C209A847B6ED7F842
:1010700090209A627B6EB7F894209A857B6E97F8E1
:10108000982083F82E207B6E97F89C2083F82F20E1
:101090007B6E00221A867B6E00225A867B6EFF22B0
:1010A00083F834207B6E363300221A605A607B6EE0
:1010B000403300221A605A609A60DA601A615A61FD
:1010C0009A617B6E002283F85C207B6E00221A6698
:1010D0007B6E00225A6637E07B6E00221A627B6EBE
:1010E00000229A847B6E00229A627B6E00229A858F
:1010F0007B6E97F8982083F82E207B6EFF2283F872
:101100002F207B6E00221A867B6E00225A867B6E11
:10111000FF2283F834207B6E363300221A605A6037
:101120007B6E403300221A605A609A60DA601A615E
:101130005A619A617B6EFF2283F85C207B6E0022ED
:101140001A667B6E00225A66786E00F045F97B6E57
:1011500018466C37BD4690BD80B582B000AF786050
:101160007B68D8687B681B8A0022194603F05CFF05
:1011700000BF0837BD4680BD80B582B000AF786043
:101180007B68D8687B681B8A0122194603F04CFFF4
:1011900000BF0837BD4680BD80B582B000AF786023
:1011A0007B68186A7B689B8C0022194603F03CFF21
:1011B00000BF0837BD4680BD80B582B000AF786003
:1011C0007B68186A7B689B8C0122194603F02CFF10
:1011D00000BF0837BD4680BD80B582B000AF7860E3
:1011E0000B46FB7097F90330002B02D0012B04D083
:1011F00007E07868FFF7B0FF03E07868FFF7CCFFFF
:1012000000BF00BF0837BD4680BD80B582B000AFCB
:1012100078600B46FB7097F90330002B02D0012B4E
:1012200004D007E07868FFF7A7FF03E07868FFF7CE
:10123000C3FF00BF00BF0837BD4680BD80B582B088
:1012400000AF78600B46FB701346BB7097F9033014
:10125000002B09DB97F90330012B05DC97F90330EC
:1012600019467868FFF7B8FF7B6858697B681B8B65
:101270000022194603F0D8FE7B681868B91C4FF0AD
:10128000FF33012206F0F7FD97F90330002B09DB4D
:1012900097F90330012B05DC97F90330194678687C
:1012A000FFF7B3FF00BF0837BD4680BD80B584B0EF
:1012B00000AFF8607B600B46FB7213463B8197F9E9
:1012C0000B30002B09DB97F90B30012B05DC97F96C
:1012D0000B301946F868FFF77FFFFB685869FB6819
:1012E0001B8B0122194603F09FFEFB6818683A89A0
:1012F0004FF0FF33796806F0BEFD97F90B30002BF5
:1013000009DB97F90B30012B05DC97F90B301946F7
:10131000F868FFF77AFF00BF1037BD4680BD80B583
:1013200082B000AF7860084611461A460346FB704B
:101330000B46BB7013463B8097F90330002B09DB4B
:1013400097F90330012B05DC97F9033019467868CB
:10135000FFF742FFBB781A464FF0FF317868FFF77E
:101360006DFF3A883B694FF0FF317868FFF79EFFC9
:1013700097F90330002B09DB97F90330012B05DCCB
:1013800097F9033019467868FFF73FFF00BF083729
:10139000BD4680BD80B582B000AF78607B6858687C
:1013A0007B681B890022194603F03EFEC82002F02C
:1013B00059FC7B6858687B681B890122194603F039
:1013C00033FE7868FFF7D8FE7868FFF7F5FE00BFB8
:1013D0000837BD4680BD000090B59FB002AF786071
:1013E0007868FFF7D7FF7868FFF7B6FE01224FF065
:1013F000FF317868FFF722FF4FF47A7002F032FC79
:101400009D4A07F1680392E80300186004331970DD
:1014100007F1680300930523CB224FF0FF31786872
:10142000FFF77DFF954A07F16403126811461980A2
:101430000233120C1A7007F1640300930323CF22C6
:101440004FF0FF317868FFF76AFF8D4A07F16003BC
:101450001268114619800233120C1A7007F16003EA
:1014600000930323E8224FF0FF317868FFF757FF1E
:10147000002387F85C30002387F85D3007F15C03B8
:1014800000930223EA224FF0FF317868FFF747FF0D
:101490007C4B1B68BB6507F1580300930423ED22C6
:1014A0004FF0FF317868FFF73AFF202387F8543078
:1014B00007F1540300930123F7224FF0FF317868BE
:1014C000FFF72DFF232387F8503007F150030093D7
:1014D0000123C0224FF0FF317868FFF720FF10236F
:1014E00087F84C3007F14C0300930123C1224FF0E1
:1014F000FF317868FFF713FF634B1B88A7F848306C
:1015000007F1480300930223C5224FF0FF317868AA
:10151000FFF705FF862387F8443007F14403009363
:101520000123C7224FF0FF317868FFF7F8FE482308
:1015300087F8403007F140030093012336224FF033
:10154000FF317868FFF7EBFE552387F83C3007F151
:101550003C03009301233A224FF0FF317868FFF7F4
:10156000DEFE002387F83830182387F8393007F17A
:10157000380300930223B1224FF0FF317868FFF760
:10158000CEFE424A07F13403126811461980023335
:10159000120C1A7007F1340300930323B6224FF0A4
:1015A000FF317868FFF7BBFE002387F8303007F182
:1015B000300300930123F2224FF0FF317868FFF7E8
:1015C000AEFE012387F82C3007F12C030093012392
:1015D00026224FF0FF317868FFF7A1FE2C4B07F170
:1015E0001C040FCB07C4238002341B0C237007F1AB
:1015F0001C0300930F23E0224FF0FF317868FFF7C0
:101600008EFE244B07F10C040FCB07C42380023459
:101610001B0C237007F10C0300930F23E1224FF002
:10162000FF317868FFF77BFE11224FF0FF317868B9
:10163000FFF704FE782002F015FB29224FF0FF315E
:101640007868FFF7FBFD7B6893F91A30184600F0C5
:1016500053F803463B7207F1080300930123362237
:101660004FF0FF317868FFF75AFE7868FFF784FD86
:1016700000BF7437BD4690BD6C03010874030108B8
:10168000780301087C030108800301088403010832
:10169000880301089803010880B489B000AF0346AD
:1016A000FB7197F90730032B11D0032B03DC012BBF
:1016B00005D0022B07D00E4B1B68FB610AE00D4BD7
:1016C0001B68FB6106E00A4B1B68FB6102E0094BEB
:1016D0001B68FB610023BA8B62F30F03FA8B62F382
:1016E0001F4318462437BD465DF8047B704700BF92
:1016F000A8030108AC03010880B483B000AF03461F
:10170000FB7197F90730032B0BD0032B03DC012B64
:1017100003D0022B03D0482304E0E82302E088230F
:1017200000E0282318460C37BD465DF8047B70475F
:1017300080B483B000AF0346FB71FB791F2B06D941
:10174000FB797E2B03D8FB79203BDBB200E0002342
:1017500018460C37BD465DF8047B704780B588B0ED
:1017600002AFF860084611461A4603467B810B46D5
:101770003B811346FB80F868FFF7EEFC7B891B0A70
:101780009BB2DBB23B757B89DBB27B75FB881B0AA6
:101790009BB2DBB2BB75FB88DBB2FB7507F11403B0
:1017A000009304232A224FF0FF31F868FFF7B7FDBA
:1017B0003B891B0A9BB2DBB23B743B89DBB27B7477
:1017C0003B8C1B0A9BB2DBB2BB743B8CDBB2FB7461
:1017D00007F11003009304232B224FF0FF31F86828
:1017E000FFF79DFD2C224FF0FF31F868FFF726FD33
:1017F000F868FFF7C1FC00BF1837BD4680BD80B553
:1018000082B000AF78607B68002B0BD000E000BF97
:101810007B681B685B6D184602F0E8FD0346022BEF
:10182000F5D000E000BF0837BD4680BD80B584B06C
:1018300000AFF8607A601A460B467B8113467B72D4
:10184000FB68002B13D07B89002B10D07B68002B0A
:101850000DD0FB681B687A897968184606F082FC0F
:101860007B7A002B04D0F868FFF7C9FF00E000BFC7
:101870001037BD4680BD80B588B002AFF86008461D
:1018800011461A4603467B810B463B811346FB807B
:10189000BA1D07F10801002300930023F86800F047
:1018A0006AFC0346002B3AD007F10A0301331B7888
:1018B0001AB207F10A031B781B021BB213431BB2B7
:1018C0009BB2FB82B7F9083099B2B7F906309AB2E9
:1018D000B7F908309BB2013398B2B7F906309BB222
:1018E00001339BB200930346F868FFF737FFF868AF
:1018F000FFF732FCFB685869FB681B8B0122194615
:1019000003F092FBFB68186807F116014FF0FF33F4
:10191000022206F0B0FAF868FFF72EFC00E000BFE4
:101920001837BD4680BD90B58DB002AFF86008464F
:1019300011461A4603467B810B463B811346FB80CA
:101940003A8F3B89D31A9BB2FB83BA8FFB88D31A99
:101950009BB2BB83B7F91E30002B17D1B7F91C30EF
:10196000002B00F0C780B7F91C30002BB8BF5B42DA
:101970009BB2B7F90600B7F90820798901930123D2
:1019800000930346F86800F02BF9B6E0B7F91C3075
:10199000002B17D1B7F91E30002B00F0AD80B7F93E
:1019A0001E30002BB8BF5B429BB2B7F90600B7F9F7
:1019B000082079890124019400930346F86800F017
:1019C0000FF99AE0B7F91C30002BB8BF5B429AB20E
:1019D000B7F91E30002BB8BF5B429BB29A428CBF56
:1019E00001230023DBB2FB76FB7E002B0BD03B896F
:1019F0003B83FB883B813B8BFB803B8FFB82BB8F18
:101A00003B87FB8ABB87B7F90820B7F938309A4281
:101A10000BDD3B89BB823B8F3B81BB8A3B87FB88CD
:101A20007B82BB8FFB807B8ABB873A8F3B89D31A33
:101A30009BB2FB83B7F93C20B7F90630D31A002BD1
:101A4000B8BF5B42BB83B7F91E305B107B84B7F92C
:101A50000620B7F93C309A4202DA01233B8442E087
:101A60004FF6FF733B843EE0FB7E002B04D0FB88E7
:101A7000FB843B89BB8403E03B89FB84FB88BB84FC
:101A8000B7F92630002B17DBB7F92630FA68928BAE
:101A9000934211DCB7F92430002B0DDBB7F9243069
:101AA000FA68D28B934207DCB7F92430B7F92620C5
:101AB0007989F868FFF7DFFE7A8CBB8BD31A9BB26B
:101AC0007B84B7F92230002B09DAFA883B8C134467
:101AD0009BB2FB807A8CFB8B13449BB27B843B894B
:101AE00001339BB23B81B7F90820B7F938309A42ED
:101AF000BADD02E000BF00E000BF2C37BD4690BD5C
:101B000090B587B002AFF860084611461A46034602
:101B10007B810B463B811346FB803A893B8C134407
:101B20009BB21BB2B7F90640B7F908007989B7F93B
:101B300006200192009323460246F868FFF7F3FE61
:101B4000FA88BB8C13449BB2013B9BB21CB23A890E
:101B50003B8C13449BB21BB2F988BA8C0A4492B2F4
:101B6000013A92B212B2B7F9080079890192009352
:101B700023460246F868FFF7D6FEFA88BB8C13446A
:101B80009BB21BB2B7F90600B7F908207989019317
:101B9000B7F9083000930346F868FFF7C4FE3A89A6
:101BA0003B8C13449BB2013B9BB218B23A893B8CED
:101BB00013449BB2013B9BB21BB2F988BA8C0A4416
:101BC00092B212B2B7F90640798901920093234686
:101BD0000246F868FFF7A7FE00BF1437BD4690BD68
:101BE00090B58DB002AFF860084611461A4603461C
:101BF0007B810B463B811346FB80BA1D07F1080130
:101C000007F13C03009307F13803F86800F0B3FADA
:101C10000346002B6FD03B8FBA8F02FB03F37B612F
:101C20007B697B627B6A3B623B6AB3F5806F02D95A
:101C30004FF480633B6207F10A0301331B781AB249
:101C400007F10A031B781B021BB213431BB27B82F2
:101C50000023FB8307E0FB8B29497A8A21F81320B4
:101C6000FB8B0133FB83FB8B3A6A9A42F3D8B7F9BB
:101C7000083099B2B7F9063098B2B7F908309AB27D
:101C80003B8F13449BB2013B9CB2B7F906309AB22A
:101C9000BB8F13449BB2013B9BB200932346024689
:101CA000F868FFF75BFDF868FFF756FAFB685869BC
:101CB000FB681B8B0122194603F0B6F914E07B6A1E
:101CC000BB61BA693B6A9A4201D93B6ABB61BB6995
:101CD0009BB25B0099B20123094AF868FFF7A6FDA1
:101CE0007A6ABB69D31A7B627B6A002BE7D1F868FA
:101CF000FFF742FA00E000BF2C37BD4690BD00BFA1
:101D00000402002080B584B002AF78600B467B806F
:101D10007B689B8B7A68D28B798801920093002331
:101D200000227868FFF75CFF00BF0837BD4680BD22
:101D300080B58CB002AFF860084611461A460346DB
:101D40007B810B463B811346FB80FB68002B00F038
:101D5000D880FB6B002B00F0D480FB887B833B8E0C
:101D60003B83BB8EFB823B8FBB8207F1160007F1E2
:101D7000180207F11A0107F1140300930346F868EB
:101D800000F0F9F90346002B00F0BD80BB8E07334D
:101D9000002B00DA0733DB103B84002387F8273061
:101DA00007F10A0301331B781AB207F10A031B7803
:101DB0001B021BB213431BB2FB8307F10803013361
:101DC0001B781AB207F108031B781B021BB21343DE
:101DD0001BB2BB83B7F91A3099B2B7F918309AB26F
:101DE000F88ABB8A00930346F868FFF7B7FCF868E7
:101DF000FFF7B2F9FB685869FB681B8B0122194693
:101E000003F012F90023BB846FE000237B844CE0D5
:101E10007B8C03F00703002B05D097F827305B007D
:101E200087F827301EE0B7F92430B7F9202003FBEC
:101E300002F2B7F91A301946B7F90630CB1A002B5F
:101E400000DA0733DB101A44B7F92230002B00DA2E
:101E50000733DB101BB213441A46FB6B13441B7889
:101E600087F8273097F92730002B0DDABB8C03F069
:101E70000103FA8A03FB02F2B7F922301344244922
:101E8000FA8B21F813200CE0BB8C03F00103FA8AD3
:101E900003FB02F2B7F9223013441D49BA8B21F833
:101EA00013207B8C01339BB27B84B7F92230FA8AF2
:101EB0009342ADDBF868FFF7A2FCFB8A5B0099B2A6
:101EC000BB8C03F00103FA8A02FB03F35B00104AA8
:101ED0001A440023F868FFF7A9FCBB8C01339BB2BE
:101EE000BB843B8E01339BB23B86B7F92430BA8A60
:101EF00093428ADBF868FFF73FF9F868FFF77FFC49
:101F000002E000BF00E000BF2837BD4680BD00BF33
:101F10000402002090B593B002AFF860384680E824
:101F20000E003B891BB27B837B891BB23B833B68E2
:101F30001B78FB823B685B78BB8207F1160007F1D8
:101F4000180207F11A0107F1140300930346F86819
:101F500000F011F90346002B00F0BA803B681B78B3
:101F60001A463B685B7802FB03F3BB62BB6AFB6308
:101F70003B46043301331B781AB23B4604331B78CB
:101F80001B021BB213431BB2FB843B4606330133D7
:101F90001B781AB23B4606331B781B021BB2134355
:101FA0001BB2BB84FB6BBB63BB6BB3F5806F02D909
:101FB0004FF48063BB6397F850301846FFF7B8FBC7
:101FC000034687F8233000237B633DE03A6897F8A7
:101FD00023303968497801FB03F319467B6B0B44C6
:101FE0005B0013445B88FB6100233B6323E0FA69D9
:101FF0003B6B02FA03F303F40043002B0CD03B6865
:102000001B781A467B6B03FB02F23B6B134432498D
:10201000FA8C21F813200BE03B681B781A467B6B87
:1020200003FB02F23B6B13442B49BA8C21F81320BB
:102030003B6B01333B633B681B781A463B6B934217
:10204000D5D37B6B01337B633B685B781A467B6B34
:102050009342BBD3398978893B893A681278134413
:102060009BB2013B9CB27B893A68527813449BB285
:10207000013B9BB2009323460246F868FFF76EFBD4
:10208000F868FFF769F8FB685869FB681B8B012249
:10209000194602F0C9FF14E0FB6BFB62FA6ABB6BE6
:1020A0009A4201D9BB6BFB62FB6A9BB25B0099B29F
:1020B0000123094AF868FFF7B9FBFA6BFB6AD31AE8
:1020C000FB63FB6B002BE7D1F868FFF755F800E0E6
:1020D00000BF4437BD4690BD0402002080B588B0E3
:1020E00002AFF860384680E80E003B89FB827B89AE
:1020F000BB823B897B8236E03B6A1B780D2B02D189
:102100007B8AFB822CE03B6A1B780A2B09D13B6857
:102110005B781A46BB8A13449BB2BB827B8AFB82E4
:102120001EE0B7F91630FA68928B93421FDCB7F9BC
:102130001430FA68D28B934219DCFB8A3B81BB8A4C
:102140007B813B6A1B7800933B460ECBF868FFF718
:10215000E1FE3B681B781A46FB8A13449BB2FB8264
:102160003B6A01333B623B6A1B78002BC4D100BF42
:102170001837BD4680BD80B485B000AFF860B96047
:102180007A603B60BB68002B02D07B68002B01D1DA
:10219000002389E0BB68B3F900301A46FB689B8BCB
:1021A0009A4207DA7B68B3F900301A46FB68DB8B8A
:1021B0009A4201DB002377E03B68002B0CD0BB691F
:1021C000002B09D03B681B88002B03D0BB691B8800
:1021D000002B01D1002367E0BB68B3F90030002B6E
:1021E0000FDA3B68002B09D03B681A88BB68B3F94B
:1021F00000309BB2D31A9AB23B681A80BB680022A7
:102200001A807B68B3F90030002B0FDABB69002B12
:1022100009D0BB691A887B68B3F900309BB2D31A26
:102220009AB2BB691A807B6800221A803B68002B37
:1022300039D0BB69002B36D0BB68B3F900301A46E1
:102240003B681B881344FA68928B934209DDFB6854
:102250009A8BBB68B3F900309BB2D31A9AB23B6831
:102260001A807B68B3F900301A46BB691B88134497
:10227000FA68D28B934209DDFB68DA8B7B68B3F98D
:1022800000309BB2D31A9AB2BB691A803B681B8894
:10229000002B05D0BB691B88002B01D0012300E077
:1022A0000023DBB200E0012318461437BD465DF879
:1022B000047B704780B483B000AF03460A46FB71CD
:1022C0001346BB7197F9072097F906309A4212DD41
:1022D00097F9063007EE903AF8EEE76A97F907307B
:1022E00007EE903AB8EEE77AC6EE877AB7EE007A54
:1022F00077EE677A1AE097F9062097F907309A4245
:1023000012DD97F9073007EE903AF8EEE76A97F991
:10231000063007EE903AB8EEE77AC6EE877AB7EE67
:10232000007A77EE677A01E0DFED047AB0EE670AB3
:102330000C37BD465DF8047B704700BF000000000D
:1023400080B483B000AF03460A46FB711346BB71ED
:102350001D4B93F90030002B07DD97F9062097F904
:1023600007309A4201DD022328E0184B93F9003030
:10237000002B07DD97F9072097F906309A4201DD17
:1023800001231BE0104B93F90030002B07DA97F97B
:10239000062097F907309A4201DD00230EE00B4B2F
:1023A00093F90030002B07DA97F9072097F90630E8
:1023B0009A4201DD032301E04FF0FF3318460C374A
:1023C000BD465DF8047B7047680D0020670D002056
:1023D00080B485B000AF034687ED020AFB7397F91E
:1023E0000F30B3F1FF3F0CD1594B00221A70594BFB
:1023F00000221A70584B53221A70584B53221A70ED
:10240000A0E097F90F30032B00F29C8001A252F854
:1024100023F000BF2524000897240008B5240008F5
:10242000272500084C4B46221A704C4B46221A7046
:102430004B4B93F90030002B16DD4A4B1A78444B76
:102440001A70484B1B7807EE903AB8EEE77AD7ED52
:10245000027A67EE277AFCEEE77AC7ED017A3B79DC
:10246000DAB23C4B1A706DE03E4B1B7807EE903AA7
:10247000B8EEE77AD7ED027A67EE277AFCEEE77AD4
:10248000C7ED017A3B79DAB2314B1A70354B1A78C5
:10249000304B1A7056E0304B46221A702F4B4222B6
:1024A0001A70304B1A782A4B1A702E4B1A78294B17
:1024B0001A7047E0284B42221A70284B42221A70A9
:1024C000274B93F90030002B16DD264B1B7807EEC7
:1024D000903AB8EEE77AD7ED027A67EE277AFCEE0B
:1024E000E77AC7ED017A3B79DAB2194B1A701D4BC6
:1024F0001A78184B1A7025E01A4B1A78144B1A7078
:10250000184B1B7807EE903AB8EEE77AD7ED027ACF
:1025100067EE277AFCEEE77AC7ED017A3B79DAB20B
:102520000C4B1A700EE00C4B42221A700B4B4622D9
:102530001A700C4B1A78064B1A700A4B1A78054B16
:102540001A7000BF00BF1437BD465DF8047B7047AA
:10255000690D00206A0D0020540D0020580D002048
:10256000670D00205A0D002080B584B002AF7C4B6F
:102570001B78323B1846FDF7F5FF77A3D3E900231C
:10258000FEF75AF802460B4610461946FEF704FBC2
:102590000346FB80734B1B88FA889A4252D0724BD9
:1025A00093F90030462B11D1704B1868704B198885
:1025B0006C4B1B88C3F161039BB21BB206220192D4
:1025C0000F220092F522FFF70BFB0FE0674B186814
:1025D000674B1988634B1B8861339BB21BB2062281
:1025E00001920F220092F522FFF7FAFA614B1B7855
:1025F000462B10D15D4B18685F4B1988FB88C3F1DF
:1026000061039BB21BB2062201920F220092F522B7
:10261000FFF7E6FA0EE0554B1868574B1988FB8810
:1026200061339BB21BB2062201920F220092F52267
:10263000FFF7D6FA4B4AFB8813804E4B1B785AB2F1
:10264000494B1A704D4B1B78323B1846FDF78AFFF9
:1026500041A3D3E90023FDF7EFFF02460B461046E6
:102660001946FEF799FA0346BB80454B1B88BA888A
:102670009A4256D0434B93F90030462B12D13B4B34
:1026800018683B4B19883E4B1B88C3F161039BB212
:102690001BB2062201920F22009240F21312FFF7A2
:1026A0009FFA10E0314B1868314B1988344B1B8866
:1026B00061339BB21BB2062201920F22009240F2BC
:1026C0001312FFF78DFA304B1B78462B11D1274B95
:1026D0001868294B1988BB88C3F161039BB21BB2F0
:1026E000062201920F22009240F21312FFF778FAAD
:1026F0000FE01E4B1868204B1988BB8861339BB2D2
:102700001BB2062201920F22009240F21312FFF731
:1027100067FA1B4ABB8813801B4B1B785AB2194BB4
:102720001A701A4B1B78002B08D0104B1868184BE6
:10273000184A00920ECBFFF7D1FC07E00B4B18684C
:10274000154B164A00920ECBFFF7C8FC00BF0837A6
:10275000BD4680BDAFF300809A9999999999F93F48
:10276000690D002000000020A00D00206C0D00204D
:10277000F41E0108540D0020F81E01086A0D002007
:1027800002000020A10D0020580D0020A20D002005
:102790007C0D0020B0030108880D0020C003010853
:1027A00080B586B002AF0346FB71824B1868824B3E
:1027B000198864230193282300935023A022FFF754
:1027C0009FF97C4B18687C4B19880A2301931423CA
:1027D00000934723AA22FFF703FAFB791E2B04D8A4
:1027E000764B1A88764B9A8003E0764B1A88744BA6
:1027F0009A80FB7907F10800734A05210DF088F8EB
:102800006C4B18686E4B07F1080200920ECBFFF775
:1028100065FCFB794A2B30D9664B1868694B1988DF
:10282000132301931E2300935523A522FFF7D8F904
:10283000604B1868634B1988132301931E23009380
:102840006D23A522FFF7CCF95A4B18685D4B198808
:10285000132301931E2300938523A522FFF7C0F9BC
:10286000544B1868574B1988132301931E23009368
:102870009D23A522FFF7B4F997E0FB79312B30D9DE
:102880004C4B1868514B1988132301931E23009356
:102890005523A522FFF7A4F9464B1868494B198820
:1028A000132301931E2300936D23A522FFF798F9AC
:1028B000404B1868434B1988132301931E23009340
:1028C0008523A522FFF78CF93A4B18683D4B1988F0
:1028D000132301931E2300939D23A522FFF780F964
:1028E00063E0FB79182B30D9324B1868374B1988C5
:1028F000132301931E2300935523A522FFF770F99C
:102900002C4B1868314B1988132301931E23009315
:102910006D23A522FFF764F9264B1868294B198807
:10292000132301931E2300938523A522FFF758F953
:10293000204B1868234B1988132301931E230093FF
:102940009D23A522FFF74CF92FE01A4B18681F4B67
:102950001988132301931E2300935523A522FFF703
:102960003FF9144B1868194B1988132301931E2340
:1029700000936D23A522FFF733F90E4B1868134B14
:102980001988132301931E2300938523A522FFF7A3
:1029900027F9084B1868094B1988132301931E2344
:1029A00000939D23A522FFF71BF900BF1037BD46FA
:1029B00080BD00BF6C0D0020F21E0108F81E01084A
:1029C000940D0020F61E0108D0030108F41E010832
:1029D00080B58EB00AAF01F0D4F800F02FFA00F005
:1029E000D1FC00F09DFC00F077FA00F0D5FA00F081
:1029F00013FB00F049FC00F0A3FB0CF067F900F0BA
:102A000049FBA54801F054FF0346002B01D000F01C
:102A100039FD00220121A04801F0B6FF0346002B3A
:102A200001D000F02FFD9D4B12221A609B4B00221B
:102A30005A609A4B00229A60984B0222DA60974BB8
:102A400000221A61954B00225A61944B00229A6130
:102A5000924B0022DA61914B00221A62904B1322B2
:102A60001A608F4B00225A608D4B00229A608C4B6B
:102A70000222DA608A4B00221A61894B00225A61D5
:102A8000874B00229A61864B0022DA61844B002238
:102A90001A624FF47A7001F0E5F80A2281498248FF
:102AA00007F05CFA0123099301230893022307939B
:102AB0004FF090430693012305934FF09043049306
:102AC000012303934FF4807302934FF090430193DB
:102AD000102300934FF0904308224FF09041734829
:102AE000FEF742FA0346724A1360724B1A88724B21
:102AF000DA80724B1A88704B9A806F4B704A1A605A
:102B00006D4B1E221A816C4BD2225A81694B1A8856
:102B10006C4BDA806C4B1A886A4B9A80694B6B4A13
:102B20001A60684B8C221A81664B0A225A81614BCB
:102B30001A88674BDA80674B1A88654B9A80644B1A
:102B4000624A1A60624B8C221A81614B0A225A81B6
:102B5000584B1A88604BDA805B4B1A885E4B9A8020
:102B60005D4B5A4A1A605C4BA5221A815A4B3C2293
:102B70005A814F4B1B684F4A128811461846FFF77F
:102B8000C1F84B4B18684C4B544A00920ECBFFF7E0
:102B9000A5FA474B18684E4B514A00920ECBFFF7EF
:102BA0009DFA434B1868454B1988A02301931923BC
:102BB00000931423DC22FEF7A3FF3D4B18683F4B24
:102BC0001988A02301931923009314234FF49172C1
:102BD000FEF796FF1420FFF7E3FD354B1868354BE1
:102BE0001988364B1A883F4B0393C82302938223DC
:102BF0000193032300930123FFF79AF83A4805F065
:102C000003FF3A4B1B78002B00F0F680254B1B7816
:102C1000DBB24D2B40F0CB8035480CF03BFD03463A
:102C20005AB2344B1A7034480CF034FD03465AB291
:102C3000324B1A702F4B93F900301A462D4B93F9F3
:102C4000003003FB02F22D4B93F9003019462B4B59
:102C500093F9003001FB03F313441846FDF782FC9F
:102C600002460B4643EC102B0DF06EFA53EC102B82
:102C700010461946FDF7B0FF03461846FDF784FCE1
:102C800003A3D3E90023FDF7D7FC02460B4637E048
:102C9000FCC324C96432D93F040A00200C0D002073
:102CA000300D00205C0D0020180C0020BC0A002014
:102CB0006C0D0020F41E0108700D0020FA1E0108A2
:102CC000A40B01087C0D0020F61E01083404010845
:102CD000880D0020F81E0108940D0020D80301087B
:102CE000C0030108FC1E0108800B0020660D0020B7
:102CF0005D0D0020670D0020610D0020680D002093
:102D0000104619464FF000023D4BFDF7DFFA024630
:102D10000B4610461946FDF73FFF0346DAB2394B22
:102D20001A70384B1B78642B02D9364B64221A7008
:102D3000354B93F90030002BB8BF5B42FB73334B2C
:102D400093F90030002BB8BF5B42BB7397F90F308B
:102D500097F90E2011461846FFF7ACFA87ED020AE4
:102D600097F90F3097F90E2011461846FFF7E8FA49
:102D70000346FB7197F9073097ED020A1846FFF7F3
:102D800027FB234B1A78234B5A70234B1A78234B7B
:102D90005A70204A2249234801F0B2FD022000F077
:102DA00061FF1E4A20491F4801F0AAFD21E01F4B88
:102DB0001B78DBB24C2B1CD01C4B1B78DBB2522B8C
:102DC00017D01A4B1B78DBB2532B12D01849174877
:102DD0000CF0DAFD0346002B0BD0144B1B78DBB252
:102DE000212B03D1134B00221A7002E0114B012258
:102DF0001A70114B00221A70FFF7B6FB01E700BFF3
:102E0000000049405A0D0020670D0020680D002089
:102E1000690D0020540D00206A0D0020580D00207F
:102E20000C0D0020040A0020300D00205C0D002055
:102E30007463656EA20D0020660D002080B594B00D
:102E400000AF07F118033822002118460CF094FD5A
:102E50003B1D00221A605A609A60DA601A610020F5
:102E600003F02EFF2223BB614FF480737B6240236B
:102E7000BB6201233B6302237B630223BB63042306
:102E8000FB6355233B6402237B640223BB64022360
:102E9000FB6407F11803184603F0C6FF0346002B36
:102EA00001D000F0EFFA0F237B600323BB60002307
:102EB000FB6000233B6100237B613B1D042118461E
:102EC00004F0C4FA0346002B01D000F0DBFA00BF87
:102ED0005037BD4680BD000080B586B000AF2C4B9A
:102EE0002C4A1A602A4B00225A60294B00229A6011
:102EF000274B0022DA60264B00221A74244B002252
:102F00005A74234B00229A74214B64225A61204B3D
:102F100001229A611E4B1222DA611D4B0F221A62A6
:102F20001B4B01225A621A4B01229A62184B012252
:102F3000DA62174B01221A63154B00225A63144BB5
:102F400000229A63124B0022DA63114801F0FCFA66
:102F50000346002B01D000F095FA00233B600023CC
:102F60007B600223BB600123FB6010233B611023C5
:102F70007B613B461946064801F040FC0346002BA6
:102F800001D000F07FFA00BF1837BD4680BD00BFFA
:102F9000040A00200068004080B500AF1B4B1C4AAB
:102FA0001A601A4B1B4A5A60184B00229A60174B42
:102FB0000122DA60154B00221A61144B00225A617B
:102FC000124B00229A61114B0022DA610F4B002252
:102FD0001A620E4802F040F80346002B01D000F0C0
:102FE00051FA0021094802F0D2F80346002B01D023
:102FF00000F048FA0021054802F014F90346002BBE
:1030000001D000F03FFA00BF80BD00BF680A002079
:1030100000540040C285B24080B500AF1B4B1C4A33
:103020001A601A4B4FF482725A60184B00229A6051
:10303000164B4FF4E062DA60144B00221A61134B16
:1030400000225A61114B4FF400729A610F4B10220B
:10305000DA610E4B00221A620C4B00225A620B4BB3
:1030600000229A62094B0722DA62084B00221A6397
:10307000064B08225A63054804F052FE0346002B13
:1030800001D000F0FFF900BF80BD00BFBC0A0020E6
:103090000030014080B588B000AF07F11003002276
:1030A0001A605A609A60DA603B1D00221A605A600A
:1030B0009A60214B214A1A601F4B4AF203625A6000
:1030C0001D4B00229A601C4B40F2DC52DA601A4B16
:1030D0004FF400721A61184B00225A61164B80227D
:1030E0009A61154805F038FC0346002B01D000F02A
:1030F000C9F94FF480533B6107F1100319460E489C
:1031000005F0BEFF0346002B01D000F0BBF9002301
:103110007B600023BB600023FB603B1D1946064813
:1031200006F05CFD0346002B01D000F0ABF900BFB8
:103130002037BD4680BD00BF800B0020002C014021
:1031400080B59CB000AF07F1600300221A605A609E
:103150009A60DA6007F1540300221A605A609A609C
:1031600007F1380300221A605A609A60DA601A6127
:103170005A619A613B1D3422002118460CF0FCFB79
:103180003F4B404A1A603E4B00225A603C4B0022A3
:103190009A603B4B4FF6FF72DA60394B00221A619E
:1031A000374B00225A61364B00229A61344805F0B1
:1031B000D3FB0346002B01D000F064F94FF4805399
:1031C0003B6607F1600319462D4805F059FF034699
:1031D000002B01D000F056F9294805F08DFC03467C
:1031E000002B01D000F04EF900237B650023FB6526
:1031F00007F154031946224806F0F0FC0346002B61
:1032000001D000F03FF96023BB630023FB63002380
:103210003B6400237B640023BB640023FB64002326
:103220003B6507F1380304221946154805F014FEE2
:103230000346002B01D000F025F900237B6000231A
:10324000BB600023FB6000233B6100237B614FF4E4
:103250000053BB610023FB6100237B633B1D1946C8
:10326000074806F051FD0346002B01D000F00AF993
:10327000034800F0D5FA00BF7037BD4680BD00BFDF
:10328000CC0B00200040014080B500AF224B234A08
:103290001A60214B4FF4E1325A601F4B00229A60B2
:1032A0001D4B0022DA601C4B00221A611A4B0C22C3
:1032B0005A61194B00229A61174B0022DA61164BB2
:1032C00000221A62144B00225A62134B00229A62A7
:1032D000114806F0F3FD0346002B01D000F0D2F8B0
:1032E00000210D4808F07EF90346002B01D000F0C4
:1032F000C9F80021084808F0B3F90346002B01D0B3
:1033000000F0C0F8044808F034F90346002B01D05F
:1033100000F0B8F800BF80BD180C00200038014054
:1033200080B582B000AF164B9B6C154A43F0040386
:103330009364134B9B6C03F004037B607B68104B1E
:103340009B6C0F4A43F0010393640D4B9B6C03F09D
:1033500001033B603B68002200210B2000F07FFD51
:103360000B2000F096FD002200210C2000F077FDDC
:103370000C2000F08EFD00BF0837BD4680BD00BFA9
:103380000010024080B588B000AF07F10C030022A6
:103390001A605A609A60DA601A61234BDB6C224A29
:1033A00043F00103D364204BDB6C03F00103BB60EB
:1033B000BB681D4BDB6C1C4A43F00203D3641A4B01
:1033C000DB6C03F002037B607B68002240F21B1180
:1033D0004FF0904001F028FE00224021134801F0F8
:1033E00023FE40F21B13FB6001233B6100237B6142
:1033F0000023BB6107F10C0319464FF0904001F028
:1034000091FC4023FB6001233B6100237B6100238F
:10341000BB6107F10C031946044801F083FC00BFAF
:103420002037BD4680BD00BF0010024000040048A8
:1034300080B483B000AF7860074B01221A70074B4D
:103440001B6800225A62064B01221A7000BF0C371B
:10345000BD465DF8047B7047660D0020800B0020A0
:10346000A20D002080B483B000AF7860044B00222E
:103470001A7000BF0C37BD465DF8047B704700BF73
:10348000A20D002080B400AF72B600BF00BFFDE700
:1034900080B582B000AF0F4B1B6E0E4A43F00103A4
:1034A00013660C4B1B6E03F001037B607B68094BBA
:1034B0009B6D084A43F080539365064B9B6D03F068
:1034C00080533B603B6803F09FFC00BF0837BD465C
:1034D00080BD00BF0010024080B59EB000AF786094
:1034E00007F1640300221A605A609A60DA601A6178
:1034F00007F110035422002118460CF03DFA7B68B6
:103500001B68284A934249D14FF480533B614FF0E6
:103510000073BB6407F11003184604F0B3F90346C7
:10352000002B01D0FFF7AEFF1F4B9B6D1E4A43F0EF
:10353000007393651C4B9B6D03F00073FB60FB688D
:10354000194BDB6C184A43F00203D364164BDB6C57
:1035500003F00203BB60BB684FF480537B66022319
:10356000BB660123FB6600233B6709237B6707F1EA
:10357000640319460D4801F0D5FB4FF400537B66F8
:103580000223BB660023FB6600233B6709237B679E
:1035900007F164031946054801F0C4FB00BF783702
:1035A000BD4680BD00680040001002400004004895
:1035B00080B5A0B000AF786007F16C0300221A60FC
:1035C0005A609A60DA601A6107F1180354220021E8
:1035D00018460CF0D1F97B681B682D4A934253D1F1
:1035E0004023BB6100237B6307F11803184604F0F6
:1035F00049F90346002B01D0FFF744FF254BDB6C54
:10360000244A43F00103D364224BDB6C03F0010333
:103610007B617B691F4BDB6C1E4A43F00203D36462
:103620001C4BDB6C03F002033B613B694FF400432E
:10363000FB6612233B6700237B670023BB670423E1
:10364000FB6707F16C0319464FF0904001F06AFBED
:103650008023FB6612233B6700237B670023BB6745
:103660000423FB6707F16C0319460B4801F05AFB72
:10367000084B9B6D074A43F400139365054B9B6D04
:1036800003F40013FB60FB6800BF8037BD4680BDBC
:1036900000540040001002400004004880B58AB089
:1036A00000AF786007F1140300221A605A609A6034
:1036B000DA601A617B681B68304A934259D1304BFB
:1036C0001B6E2F4A43F4805313662D4B1B6E03F47D
:1036D00080533B613B692A4BDB6C294A43F0010371
:1036E000D364274BDB6C03F00103FB60FB68E02332
:1036F0007B610223BB610023FB6100233B62052346
:103700007B6207F1140319464FF0904001F00AFB69
:103710001C4B1D4A1A601B4B0B225A60194B10227E
:103720009A60184B0022DA60164B80221A61154B02
:1037300000225A61134B00229A61124B0022DA6177
:10374000104B00221A620F4800F0BEFB0346002B0C
:1037500001D0FFF797FE7B680A4A5A65094A7B68E1
:10376000936200220021232000F079FB232000F047
:1037700090FB00BF2837BD4680BD00BF0030014030
:1037800000100240200B00201C00024080B584B0D5
:1037900000AF78607B681B681E4A93421CD11E4BA9
:1037A0001B6E1D4A43F4006313661B4B1B6E03F430
:1037B0000063FB60FB6800220021182000F04FFB33
:1037C000182000F066FB00220021192000F047FBC2
:1037D000192000F05EFB18E07B681B680F4A9342DB
:1037E00013D10D4B1B6E0C4A43F4803313660A4B06
:1037F0001B6E03F48033BB60BB68002200211820DD
:1038000000F02DFB182000F044FB00BF1037BD4630
:1038100080BD00BF002C014000100240004001406C
:1038200080B588B000AF786007F10C0300221A6001
:103830005A609A60DA601A617B681B68114A934289
:103840001CD1114BDB6C104A43F00203D3640E4BC6
:10385000DB6C03F00203BB60BB684FF40043FB600A
:1038600002233B6100237B610023BB610123FB61D9
:1038700007F10C031946054801F054FA00BF203740
:10388000BD4680BD004001400010024000040048D9
:1038900080B59EB000AF786007F1640300221A6023
:1038A0005A609A60DA601A6107F11003542200210D
:1038B00018460CF061F87B681B68384A934269D15E
:1038C00001233B6100237B6107F11003184603F0DD
:1038D000D9FF0346002B01D0FFF7D4FD304B1B6E00
:1038E0002F4A43F4804313662D4B1B6E03F4804331
:1038F000FB60FB682A4BDB6C294A43F00103D3646D
:10390000274BDB6C03F00103BB60BB684FF4C06363
:103910007B660223BB660023FB6600233B6707230D
:103920007B6707F1640319464FF0904001F0FAF904
:103930001C4B1D4A1A601B4B18225A60194B00225F
:103940009A60184B0022DA60164B80221A61154BE0
:1039500000225A61134B00229A61124B2022DA6135
:10396000104B00221A620F4800F0AEFA0346002BFB
:1039700001D0FFF787FD7B680A4AC3F88020094A17
:103980007B68936200220021252000F068FA252040
:1039900000F07FFA00BF7837BD4680BD0038014097
:1039A00000100240AC0C00200800024080B400AFC0
:1039B00000BFFDE780B400AF00BFFDE780B400AFFB
:1039C00000BFFDE780B400AF00BFFDE780B400AFEB
:1039D00000BFFDE780B400AF00BFBD465DF8047BCB
:1039E000704780B400AF00BFBD465DF8047B7047F0
:1039F00080B400AF00BFBD465DF8047B704780B562
:103A000000AF00F011F900BF80BD000080B500AF2D
:103A1000024800F03CFC00BF80BD00BFAC0C0020A1
:103A200080B500AF024800F032FC00BF80BD00BF8F
:103A3000200B002080B500AF024801F02FFD00BF31
:103A400080BD00BF8022002080B500AF034805F094
:103A5000B4F8034805F0B1F800BF80BD800B00202A
:103A6000CC0B002080B500AF024805F0A6F800BFDF
:103A700080BD00BF800B002080B500AF024804F07D
:103A80005FFC00BF80BD00BFBC0A002080B500AF56
:103A9000024806F0AFFA00BF80BD00BF180C00203E
:103AA00080B586B000AF7860144A154BD31A7B619D
:103AB0007B693B61134B1B68002B02D1114B124AEF
:103AC0001A60104B1A687B6813443A699A4207D20D
:103AD0000BF080FF03460C221A604FF0FF3309E021
:103AE000084B1B68FB60074B1A687B681344054A48
:103AF0001360FB6818461837BD4680BD00000220E1
:103B000000040000A40D0020C828002080B400AFED
:103B1000064BD3F88830054A43F47003C2F8883066
:103B200000BFBD465DF8047B704700BF00ED00E0BC
:103B30000D488546FFF7EAFF0C480D490D4A002362
:103B400002E0D458C4500433C4188C42F9D30A4A52
:103B50000A4C002301E013600432A242FBD30BF0B5
:103B60003FFFFEF735FFFEE70000022000000020C7
:103B7000E8010020D82D0108E8010020C428002019
:103B8000FEE780B582B000AF0023FB71032000F098
:103B90005BF90F2000F00EF80346002B02D0012342
:103BA000FB7101E0FFF774FCFB7918460837BD464E
:103BB00080BD000080B584B000AF78600023FB7347
:103BC000164B1B68002B22D0154B1A68134B1B6831
:103BD0004FF47A71B1FBF3F3B2FBF3F3184600F044
:103BE00066F90346002B0FD17B680F2B09D8002202
:103BF00079684FF0FF3000F032F90A4A7B681360B1
:103C000007E00123FB7304E00123FB7301E00123C0
:103C1000FB73FB7B18461037BD4680BD0C000020AF
:103C2000040000200800002080B400AF054B1A6893
:103C3000054B1B681344034A136000BFBD465DF883
:103C4000047B7047A80D00200C00002080B400AF5A
:103C5000034B1B681846BD465DF8047B704700BFE8
:103C6000A80D002080B584B000AF7860FFF7EEFFAC
:103C7000B8607B68FB60FB68B3F1FF3F04D0094B81
:103C80001B68FA681344FB6000BFFFF7DFFF0246C2
:103C9000BB68D31AFA689A42F7D800BF00BF103742
:103CA000BD4680BD0C00002080B485B000AF7860B8
:103CB0007B6803F00703FB600C4BDB68BB60BA68F2
:103CC0004FF6FF031340BB60FB681A02BB68134347
:103CD00043F0BF6343F40033BB60044ABB68D36066
:103CE00000BF1437BD465DF8047B704700ED00E06F
:103CF00080B400AF044BDB681B0A03F007031846CF
:103D0000BD465DF8047B704700ED00E080B483B0F1
:103D100000AF0346FB7197F90730002B0BDBFB79F3
:103D200003F01F02074997F907305B09012000FAE9
:103D300002F241F8232000BF0C37BD465DF8047B3A
:103D4000704700BF00E100E080B483B000AF0346DD
:103D50003960FB7197F90730002B0ADB3B68DAB258
:103D60000C4997F907301201D2B20B4483F80023B3
:103D70000AE03B68DAB20849FB7903F00F03043B21
:103D80001201D2B20B441A7600BF0C37BD465DF863
:103D9000047B704700E100E000ED00E080B489B0F2
:103DA00000AFF860B9607A60FB6803F00703FB615D
:103DB000FB69C3F10703042B28BF0423BB61FB6924
:103DC0000433062B02D9FB69033B00E000237B612F
:103DD0004FF0FF32BB6902FA03F3DA43BB681A40C3
:103DE0007B699A404FF0FF317B6901FA03F3D943B5
:103DF0007B680B40134318462437BD465DF8047BAF
:103E00007047000080B582B000AF78607B68013BEE
:103E1000B3F1807F01D301230FE00A4A7B68013BA5
:103E200053600F214FF0FF30FFF78EFF054B00224C
:103E30009A60044B07221A60002318460837BD46D3
:103E400080BD00BF10E000E080B582B000AF7860B8
:103E50007868FFF729FF00BF0837BD4680BD80B5F1
:103E600086B000AF0346B9607A60FB73FFF740FF8E
:103E700078617A68B9687869FFF790FF024697F928
:103E80000F3011461846FFF75FFF00BF1837BD46D9
:103E900080BD80B582B000AF0346FB7197F9073053
:103EA0001846FFF733FF00BF0837BD4680BD80B519
:103EB00082B000AF78607868FFF7A4FF0346184629
:103EC0000837BD4680BD000080B584B000AF786083
:103ED0007B68002B01D101238DE07B681B681A46AB
:103EE000474B9A420FD87B681B681A46454B1344D0
:103EF000454AA2FB03231B099A007B685A647B682E
:103F0000424A1A640EE07B681B681A46404B134411
:103F10003D4AA2FB03231B099A007B685A647B6815
:103F20003C4A1A647B68022283F825207B681B6860
:103F30001B68FB60FB6823F4FF4323F07003FB6006
:103F40007B689A687B68DB681A437B681B691A4345
:103F50007B685B691A437B689B691A437B68DB69F2
:103F60001A437B681B6A1343FA681343FB607B6840
:103F70001B68FA681A60786800F084FA7B689B68AE
:103F8000B3F5804F02D17B6800225A607B685A6883
:103F90007B689B6CD2B21A607B68DB6C7A68126DAE
:103FA0005A607B685B68002B10D07B685B68042BD1
:103FB0000CD8786800F0A4FA7B685B6D00221A6068
:103FC0007B689B6D7A68D26D5A6008E07B6800223E
:103FD0005A657B6800229A657B680022DA657B68F7
:103FE0000022DA637B68012283F825207B680022A7
:103FF00083F82420002318461037BD4680BD00BF3B
:1040000007040240F8FFFDBFCDCCCCCC000002403D
:10401000F8FBFDBF0004024080B586B000AFF86039
:10402000B9607A603B600023FB75FB6893F824302D
:10403000012B01D1022366E0FB68012283F82420D2
:10404000FB6893F82530DBB2012B55D1FB680222C7
:1040500083F82520FB680022DA63FB681B681A6876
:10406000FB681B6822F001021A603B687A68B96835
:10407000F86800F0C9F9FB681B6B002B08D0FB68DF
:104080001B681A68FB681B6842F00E021A600FE09A
:10409000FB681B681A68FB681B6822F004021A6040
:1040A000FB681B681A68FB681B6842F00A021A600A
:1040B000FB689B6C1B6803F48033002B07D0FB6804
:1040C0009B6C1A68FB689B6C42F480721A60FB68F8
:1040D0005B6D002B07D0FB685B6D1A68FB685B6D3E
:1040E00042F480721A60FB681B681A68FB681B68E0
:1040F00042F001021A6005E0FB68002283F82420E8
:104100000223FB75FB7D18461837BD4680BD80B481
:1041100085B000AF78600023FB737B6893F825308F
:10412000DBB2022B05D07B680422DA630123FB7328
:1041300037E07B681B681A687B681B6822F00E02F8
:104140001A607B689B6C1A687B689B6C22F4807297
:104150001A607B681B681A687B681B6822F0010282
:104160001A607B685B6C03F01F027B681B6C01218B
:1041700001FA02F25A607B68DB6C7A68126D5A6051
:104180007B685B6D002B0CD07B685B6D1A687B686D
:104190005B6D22F480721A607B689B6D7A68D26DC9
:1041A0005A607B68012283F825207B68002283F80F
:1041B0002420FB7B18461437BD465DF8047B70470E
:1041C00080B584B000AF78600023FB737B6893F800
:1041D0002530DBB2022B0DD07B680422DA637B68CA
:1041E000012283F825207B68002283F82420012304
:1041F000FB7347E07B681B681A687B681B6822F0CA
:104200000E021A607B681B681A687B681B6822F0C4
:1042100001021A607B689B6C1A687B689B6C22F4B5
:1042200080721A607B685B6C03F01F027B681B6CFA
:10423000012101FA02F25A607B68DB6C7A68126D28
:104240005A607B685B6D002B0CD07B685B6D1A68D5
:104250007B685B6D22F480721A607B689B6D7A6864
:10426000D26D5A607B68012283F825207B6800228A
:1042700083F824207B689B6B002B03D07B689B6BAF
:1042800078689847FB7B18461037BD4680BD80B5DF
:1042900084B000AF78607B681B6C1B68FB607B6838
:1042A0001B681B68BB607B685B6C03F01F03042208
:1042B0009A40FB681340002B26D0BB6803F0040330
:1042C000002B21D07B681B681B6803F02003002BA8
:1042D00007D17B681B681A687B681B6822F00402A0
:1042E0001A607B685B6C03F01F027B681B6C042107
:1042F00001FA02F25A607B681B6B002B71D07B685D
:104300001B6B786898476CE07B685B6C03F01F035D
:1043100002229A40FB681340002B2ED0BB6803F0AA
:104320000203002B29D07B681B681B6803F0200365
:10433000002B0BD17B681B681A687B681B6822F016
:104340000A021A607B68012283F825207B685B6C77
:1043500003F01F027B681B6C022101FA02F25A6013
:104360007B68002283F824207B68DB6A002B38D02E
:104370007B68DB6A7868984733E07B685B6C03F0A6
:104380001F0308229A40FB681340002B2AD0BB6809
:1043900003F00803002B25D07B681B681A687B6834
:1043A0001B6822F00E021A607B685B6C03F01F0230
:1043B0007B681B6C012101FA02F25A607B680122C2
:1043C000DA637B68012283F825207B68002283F86A
:1043D00024207B685B6B002B04D07B685B6B786868
:1043E000984700BF00BF1037BD4680BD80B483B082
:1043F00000AF78607B6893F82530DBB218460C3745
:10440000BD465DF8047B704780B485B000AFF860AE
:10441000B9607A603B60FB68DB6CFA68126D5A60C9
:10442000FB685B6D002B04D0FB689B6DFA68D26D56
:104430005A60FB685B6C03F01F02FB681B6C012178
:1044400001FA02F25A60FB681B683A685A60FB681E
:104450009B68102B08D1FB681B687A689A60FB6820
:104460001B68BA68DA6007E0FB681B68BA689A6084
:10447000FB681B687A68DA6000BF1437BD465DF8D8
:10448000047B704780B487B000AF78607B681B689E
:104490001A46164B9A4202D8154B7B6101E0154B28
:1044A0007B617B693B617B681B68DBB2083B124A1E
:1044B000A2FB03231B09FB607B685B6C9B089A00D3
:1044C0003B6913441A467B689A647B680B4ADA643A
:1044D000FB6803F01F0301229A407B681A6500BF46
:1044E0001C37BD465DF8047B704700BF07040240DF
:1044F0000008024020080240CDCCCCCC800802400D
:1045000080B485B000AF78607B685B68DBB2FB602D
:10451000FA680B4B13449B001A467B685A657B680C
:10452000084A9A65FB68013B03F01F0301229A4089
:104530007B68DA6500BF1437BD465DF8047B7047C1
:104540003F8200104009024080B584B000AF78601F
:104550007B68002B01D1012347E17B6893F85C3035
:10456000DBB2002B06D17B68002283F85D207868DF
:10457000FEF7B2FF7B681B689A697B681B6822F0B4
:1045800010029A61FFF762FBF86012E0FFF75EFB32
:104590000246FB68D31A0A2B0BD97B681B6E43F0CB
:1045A00001027B681A667B68032283F85C20012382
:1045B0001BE17B681B689B6903F00803082BE5D0AF
:1045C0007B681B689A697B681B6842F001029A61EC
:1045D000FFF73CFBF86012E0FFF738FB0246FB6890
:1045E000D31A0A2B0BD97B681B6E43F001027B6840
:1045F0001A667B68032283F85C200123F5E07B6860
:104600001B689B6903F00103002BE5D07B681B68E6
:104610009A697B681B6842F002029A617B681B689A
:10462000744A934203D1744A7B685B6813607B6869
:104630001B7C012B08D17B681B689A697B681B680F
:1046400022F040029A6107E07B681B689A697B68E8
:104650001B6842F040029A617B685B7C012B08D1A9
:104660007B681B689A697B681B6842F480429A6188
:1046700007E07B681B689A697B681B6822F48042AC
:104680009A617B689B7C012B08D17B681B689A69C7
:104690007B681B6822F480529A6107E07B681B6884
:1046A0009A697B681B6842F480529A617B681B6838
:1046B0009B6923F440717B689A687B681B680A4396
:1046C0009A617B681B689A697B681B6822F0A40268
:1046D0009A617B681B681A697B681B6822F010026C
:1046E0001A617B68DB68012B08D17B681B689A69BB
:1046F0007B681B6842F004029A612CE07B68DB68EF
:10470000002B28D07B68DB68022B1CD07B681B68E1
:104710009A697B681B6842F080029A617B681B681B
:104720001A697B681B6842F010021A617B68DB68BB
:10473000032B10D17B681B689A697B681B6842F069
:1047400020029A6107E07B681B689A697B681B6896
:1047500042F020029A617B689B69013B5A067B68A4
:10476000DB69013B1B021A437B681B6A013B42EA7F
:1047700003017B685B69013B1A047B681B680A4381
:10478000DA617B689B68B3F5407F15D17B689B6AD3
:104790005A1E7B68DB6A013B1B021A437B681B6B5A
:1047A000013B1B0142EA03017B685B6A013B1A047F
:1047B0007B681B680A43DA607B681B68D3F8C0100B
:1047C0007B68DA6B7B681B680A43C3F8C020786893
:1047D00000F0C0F97B6800229A657B6800221A66A7
:1047E0007B68012283F85C20002318461037BD4601
:1047F00080BD00BF006400400065004080B487B009
:1048000000AF786039607B6893F85C30FB75FB7DA6
:10481000012B02D0FB7D022B3DD13B681B68002B96
:1048200019D13B689B689A073B68DB68DB061A4333
:104830003B681B691B041A433B685B6913433B617C
:104840007B681A6C3B685B689B001344BB60BB6869
:104850003A691A601DE03B68DB685A073B681B69D0
:1048600013433B613B689B689A073B685B69134352
:10487000FB607B685A6C3B685B68DB001344BB6081
:10488000BB683A691A60BB680433BB60BB68FA68EE
:104890001A60002306E07B681B6E43F002027B680F
:1048A0001A66012318461C37BD465DF8047B704725
:1048B00080B483B000AF78607B6893F85C30DBB283
:1048C000012B10D17B68022283F85C207B681B6877
:1048D0009A697B681B6822F001029A617B6800225A
:1048E0001A66002306E07B681B6E43F004027B68B7
:1048F0001A66012318460C37BD465DF8047B7047E5
:1049000080B586B000AFF860B9607A60FB6893F854
:104910005C30DBB2022B2CD1FB681B68D3F8C430AF
:1049200003F40013002B07D0FB681B6E43F40072E6
:10493000FB681A66012323E0FB681B68D3F8C430C8
:104940001B0C03F003037B617B697A68B968F86824
:1049500000F06CF9FB681B6801217A6901FA02F228
:10496000C3F8CC2001227B699A40FB689A6500233A
:1049700006E0FB681B6E43F00802FB681A66012321
:1049800018461837BD4680BD80B487B000AFF860C8
:10499000B9607A60FB6893F85C30FB75FB7D012B96
:1049A00003D0FB7D022B40F0C880FB681B689B6D29
:1049B0003B61BB6803F00703002B04D03B6903F0A5
:1049C0000103002B3BD0BB6803F03803002B04D05D
:1049D0003B6903F00203002B31D0BB6803F4E073A2
:1049E000002B04D03B6903F00403002B27D0BB68E5
:1049F00003F4F053002B04D03B6903F00803002BB1
:104A00001DD0BB6803F46043002B04D03B6903F066
:104A10001003002B13D0BB6803F44033002B04D0E9
:104A20003B6903F02003002B09D0BB6803F47C032F
:104A3000002B0CD03B6903F04003002B07D1FB682F
:104A40001B68DA6DFB681B6842F00102DA65BB681F
:104A500003F00703002B04D03B6903F00103002B94
:104A60003BD1BB6803F03803002B04D03B6903F053
:104A70000203002B31D1BB6803F4E073002B04D098
:104A80003B6903F00403002B27D1BB6803F4F05308
:104A9000002B04D03B6903F00803002B1DD1BB6839
:104AA00003F46043002B04D03B6903F01003002B98
:104AB00013D1BB6803F44033002B04D03B6903F0EF
:104AC0002003002B09D1BB6803F47C03002B0CD01E
:104AD0003B6903F04003002B07D0FB681B68DA6DCD
:104AE000FB681B6842F00202DA65BB6803F08003D2
:104AF000002B09D0FB681B68D3F8DC10FB681B682F
:104B00007A680A43C3F8DC20BB6803F48073002B87
:104B100009D0FB681B68D3F8E010FB681B687A6853
:104B20000A43C3F8E020FB681B68596DFB681B68EB
:104B3000BA680A435A65002306E0FB681B6E43F01F
:104B40000202FB681A66012318461C37BD465DF851
:104B5000047B704780B485B000AF7860304BBB6099
:104B60007B681B682F4A934203D1BB6803F55473DB
:104B7000BB607B681B682C4A934203D1BB6803F57A
:104B8000D463BB607B68BA681A647B681B68D3F81F
:104B9000803023F4F8117B685B6B1A047B681B6818
:104BA0000A43C3F88020BB6803F170027B685A6433
:104BB0007B681B68D3F8803023F070617B689B6B47
:104BC0001A067B681B680A43C3F88020BB6803F1A0
:104BD000B0027B689A64BB6803F5C4727B68DA64D0
:104BE000BB6803F518727B681A65BB6803F51E7213
:104BF0007B685A65BB68FB6005E0FB6800221A60B1
:104C0000FB680433FB60BB6803F55473FA689A428F
:104C1000F3D300BF00BF1437BD465DF8047B704777
:104C200000A4004000680040006C004080B489B0DF
:104C300000AFF860B9607A603B60BB685B68002BCE
:104C40000AD1BB681A69BB689B681A43BB681B68BA
:104C50009B041343FB610AE0BB681A69BB689B684D
:104C60001A43BB681B68134343F08043FB61BB6876
:104C70001B6A1A06BB68DB691A43BB689B691A4347
:104C8000BB685B691A43BB68DB681B0413433B6169
:104C9000FB68596D3A681346DB001344DB000B4494
:104CA000BB61BB69FA691A60BB690433BB61BB694C
:104CB0003A691A60BB690433BB6100237B6120E061
:104CC0007B6903337A6813441B781A067B690233C5
:104CD00079680B441B781B041A437B69013379689C
:104CE0000B441B781B02134379687A690A441278D3
:104CF0001A43BB691A60BB690433BB617B69043327
:104D00007B61BB68DB68064AD35C1A467B699342C9
:104D1000D6D300BF00BF2437BD465DF8047B704783
:104D20005C2C010880B487B000AF78603960002344
:104D30007B615AE13B681A6801217B6901FA03F340
:104D40001340FB60FB68002B00F04C813B685B6804
:104D500003F00303012B05D03B685B6803F00303FA
:104D6000022B30D17B689B683B617B695B0003222F
:104D700002FA03F3DB433A6913403B613B68DA68AC
:104D80007B695B0002FA03F33A6913433B617B687A
:104D90003A699A607B685B683B6101227B6902FA31
:104DA00003F3DB433A6913403B613B685B681B09D3
:104DB00003F001027B6902FA03F33A6913433B6192
:104DC0007B683A695A603B685B6803F00303032B16
:104DD00017D07B68DB683B617B695B00032202FACA
:104DE00003F3DB433A6913403B613B689A687B6994
:104DF0005B0002FA03F33A6913433B617B683A694B
:104E0000DA603B685B6803F00303022B23D17B6904
:104E1000DA087B68083253F822303B617B6903F083
:104E200007039B000F2202FA03F3DB433A691340A6
:104E30003B613B681A697B6903F007039B0002FA38
:104E400003F33A6913433B617B69DA087B680832F4
:104E5000396943F822107B681B683B617B695B0002
:104E6000032202FA03F3DB433A6913403B613B68D8
:104E70005B6803F003027B695B0002FA03F33A69A3
:104E800013433B617B683A691A603B685B6803F4D3
:104E90004033002B00F0A6805B4B1B6E5A4A43F058
:104EA00001031366584B1B6E03F00103BB60BB6824
:104EB000564A7B699B08023352F823303B617B6979
:104EC00003F003039B000F2202FA03F3DB433A696A
:104ED00013403B617B68B3F1904F1FD07B684C4A15
:104EE000934219D07B684B4A934213D07B684A4A5D
:104EF00093420DD07B68494A934207D07B68484A69
:104F0000934201D105230AE0062308E0042306E0CA
:104F1000032304E0022302E0012300E000237A6976
:104F200002F00302920093403A6913433B61374910
:104F30007B699B0802333A6941F82320394B9B680F
:104F40003B61FB68DB433A6913403B613B685B684C
:104F500003F48013002B03D03A69FB6813433B61D1
:104F6000304A3B6993602F4BDB683B61FB68DB4356
:104F70003A6913403B613B685B6803F40013002B04
:104F800003D03A69FB6813433B61264A3B69D3600F
:104F9000244B5B683B61FB68DB433A6913403B6130
:104FA0003B685B6803F40033002B03D03A69FB686D
:104FB00013433B611B4A3B6953601A4B1B683B61BF
:104FC000FB68DB433A6913403B613B685B6803F471
:104FD0008033002B03D03A69FB6813433B61114ACD
:104FE0003B6913607B6901337B613B681A687B69AD
:104FF00022FA03F3002B7FF49DAE00BF00BF1C37E5
:10500000BD465DF8047B704700100240000001407F
:105010000004004800080048000C00480010004848
:10502000001400480004014080B483B000AF7860F1
:105030000B467B8013467B707B78002B03D07A88ED
:105040007B689A6102E07A887B689A6200BF0C37BD
:10505000BD465DF8047B704780B582B000AF7860D4
:105060007B68002B01D101238DE07B6893F84130F0
:10507000DBB2002B06D17B68002283F840207868E1
:10508000FEF796FA7B68242283F841207B681B6830
:105090001A687B681B6822F001021A607B685A68F4
:1050A0007B681B6822F070621A617B681B689A68D3
:1050B0007B681B6822F400429A607B68DB68012BE6
:1050C00007D17B689A687B681B6842F400429A604B
:1050D00006E07B689A687B681B6842F404429A6029
:1050E0007B68DB68022B08D17B681B685A687B6889
:1050F0001B6842F400625A6007E07B681B685A68CC
:105100007B681B6822F400625A607B681B685B68DE
:105110007A68126843F0007343F4004353607B687D
:105120001B68DA687B681B6822F40042DA607B68DF
:105130001A697B685B6942EA03017B689B691A0212
:105140007B681B680A43DA607B68D9697B681A6AE6
:105150007B681B680A431A607B681B681A687B6857
:105160001B6842F001021A607B6800225A647B6867
:10517000202283F841207B6800221A637B6800228A
:1051800083F84220002318460837BD4680BD80B40E
:1051900083B000AF786039607B6893F84130DBB250
:1051A000202B38D17B6893F84030012B01D10223AA
:1051B00032E07B68012283F840207B68242283F858
:1051C00041207B681B681A687B681B6822F001021B
:1051D0001A607B681B681A687B681B6822F480521F
:1051E0001A607B681B6819687B681B683A680A4309
:1051F0001A607B681B681A687B681B6842F00102B2
:105200001A607B68202283F841207B68002283F8A3
:105210004020002300E0022318460C37BD465DF80D
:10522000047B704780B485B000AF786039607B68DC
:1052300093F84130DBB2202B39D17B6893F84030B2
:10524000012B01D1022333E07B68012283F8402047
:105250007B68242283F841207B681B681A687B687E
:105260001B6822F001021A607B681B681B68FB60E8
:10527000FB6823F47063FB603B681B02FA6813430E
:10528000FB607B681B68FA681A607B681B681A6899
:105290007B681B6842F001021A607B68202283F859
:1052A00041207B68002283F84020002300E0022395
:1052B00018461437BD465DF8047B704780B584B04E
:1052C00000AF78607B68002B01D10123C0E07B68D0
:1052D00093F89132DBB2002B06D17B68002283F871
:1052E0009022786809F0D2FE7B68032283F891222D
:1052F0007B681B68184606F056FA0023FB733EE0F5
:10530000FA7B796813469B001344DB000B4411338E
:1053100001221A70FA7B796813469B001344DB0064
:105320000B441033FA7B1A70FA7B796813469B00A2
:105330001344DB000B44133300221A70FA7B7968A4
:1053400013469B001344DB000B44203300221A60F9
:10535000FA7B796813469B001344DB000B4424332B
:1053600000221A60FB7B79685A1C13469B00134489
:10537000DB000B4400221A60FB7B0133FB737B686C
:105380001B79FA7B9A42BBD30023FB7344E0FA7B80
:10539000796813469B001344DB000B4403F251135E
:1053A00000221A70FA7B796813469B001344DB00D5
:1053B0000B4403F5A873FA7B1A70FA7B79681346DD
:1053C0009B001344DB000B4403F2531300221A70BA
:1053D000FA7B796813469B001344DB000B4403F50A
:1053E000B07300221A60FA7B796813469B0013445D
:1053F000DB000B4403F5B27300221A60FA7B796874
:1054000013469B001344DB000B4403F5B4730022E6
:105410001A60FB7B0133FB737B681B79FA7B9A4232
:10542000B5D37B6818687B68043393E8060006F000
:10543000D5F97B6800221A737B68012283F89122D8
:105440007B689B7A012B02D1786801F00EFC002367
:1054500018461037BD4680BD80B582B000AF786079
:105460007B6893F89032012B01D1022312E07B6814
:10547000012283F890227B681B68184606F07CF9AD
:105480007B681B68184607F059FF7B68002283F889
:105490009022002318460837BD4680BD80B584B0F1
:1054A00000AF78607B681B68184607F05EFFF86005
:1054B000FB6803F40043002B03D0786800F006FB80
:1054C00010E1FB6803F48063002B13D07B681B683A
:1054D000B3F844309AB27B681B6822F4806292B2BF
:1054E000A3F84420786809F062FE0021786800F093
:1054F000FCF8F7E0FB6803F48043002B0CD07B68DA
:105500001B68B3F844309AB27B681B6822F480426F
:1055100092B2A3F84420E5E0FB6803F40053002BAB
:105520000CD07B681B68B3F844309AB27B681B6868
:1055300022F4005292B2A3F84420D3E0FB6803F4B3
:105540008053002B34D07B681B68B3F840309AB28C
:105550007B681B6822F0040292B2A3F840207B68AB
:105560001B68B3F840309AB27B681B6822F00802CF
:1055700092B2A3F840207B6893F8C832012B07D180
:105580007B68002283F8C822002178680AF002F8BC
:10559000786809F045FE7B681B68B3F844309AB21E
:1055A0007B681B6822F4805292B2A3F8442099E0F1
:1055B000FB6803F40063002B27D07B681B68B3F8FB
:1055C00040309AB27B681B6842F0080292B2A3F89E
:1055D00040207B681B68B3F844309AB27B681B6834
:1055E00022F4006292B2A3F844207B681B68B3F8EF
:1055F00040309AB27B681B6842F0040292B2A3F872
:105600004020786809F0F2FD6CE0FB6803F080034D
:10561000002B40D07B681B68B3F844309AB27B689B
:105620001B6822F0800292B2A3F844207B6893F8B2
:10563000C832002B2BD17B681B68B3F840309AB27C
:105640007B681B6842F0040292B2A3F840207B689A
:105650001B68B3F840309AB27B681B6842F00802BE
:1056600092B2A3F840207B68012283F8C8227B68AD
:105670001B68B3F854309BB29B0803F03C027B6874
:10568000C3F8CC220121786809F084FF2AE0786809
:1056900009F0ACFD26E0FB6803F40073002B0FD08B
:1056A0007B681B68B3F844309AB27B681B6822F4AD
:1056B000007292B2A3F84420786809F06AFD11E004
:1056C000FB6803F48073002B0CD07B681B68B3F875
:1056D00044309AB27B681B6822F4807292B2A3F8BD
:1056E000442000BF1037BD4680BD80B582B000AFFA
:1056F00078600B46FB707B6893F89032012B01D1E8
:10570000022312E07B68012283F890227B68FA78FA
:105710001A737B681B68FA781146184607F0FAFD81
:105720007B68002283F89022002318460837BD4684
:1057300080BD80B584B000AF7860084611461A4637
:105740000346FB700B463B801346BB700023FB7285
:1057500097F90330002B0EDAFB7803F007021346AB
:105760009B001344DB0010337A681344FB60FB6832
:1057700001225A700EE0FB7803F0070213469B00EB
:105780001344DB0003F5A8737A681344FB60FB68DD
:1057900000225A70FB7803F00703DAB2FB681A7034
:1057A0003B88C3F30A02FB681A61FB68BA78DA70B7
:1057B000BB78022B02D1FB6800221A717B6893F838
:1057C0009032012B01D102230EE07B68012283F885
:1057D00090227B681B68F968184606F01DF87B6804
:1057E000002283F89022FB7A18461037BD4680BD10
:1057F00080B584B000AF78600B46FB7097F903303A
:10580000002B0EDAFB7803F0070213469B001344CB
:10581000DB0010337A681344FB60FB6801225A7086
:105820000EE0FB7803F0070213469B001344DB00F5
:1058300003F5A8737A681344FB60FB6800225A7072
:10584000FB7803F00703DAB2FB681A707B6893F801
:105850009032012B01D102230EE07B68012283F8F4
:1058600090227B681B68F968184606F0BDFC7B68CF
:10587000002283F89022002318461037BD4680BDD1
:1058800080B586B000AFF8607A603B600B46FB7273
:10589000FB7A03F0070213469B001344DB0003F579
:1058A000A873FA6813447B617B697A685A617B69E3
:1058B0003A689A617B690022DA617B6900225A703A
:1058C000FB7A03F00703DAB27B691A70FB681B6886
:1058D0007969184606F075FE002318461837BD464C
:1058E00080BD80B483B000AF78600B46FB70FB785E
:1058F00003F00702796813469B001344DB000B4456
:1059000003F5B6731B6818460C37BD465DF8047B7B
:10591000704780B586B000AFF8607A603B600B4698
:10592000FB72FB7A03F0070213469B001344DB0073
:105930001033FA6813447B617B697A685A617B692A
:105940003A689A617B69012283F824207B693A686E
:105950001A627B690022DA617B6901225A70FB7A44
:1059600003F00703DAB27B691A70FB681B68796978
:10597000184606F026FE002318461837BD4680BD9F
:1059800080B584B000AF78600B46FB70FB7803F005
:1059900007037A681279934201D901233EE097F90F
:1059A0000330002B0EDAFB7803F0070213469B004E
:1059B0001344DB0010337A681344FB60FB68012258
:1059C0005A700CE0FA7813469B001344DB0003F591
:1059D000A8737A681344FB60FB6800225A70FB6866
:1059E00001229A70FB7803F00703DAB2FB681A70A1
:1059F0007B6893F89032012B01D102230EE07B6883
:105A0000012283F890227B681B68F968184607F02A
:105A100087FB7B68002283F890220023184610370A
:105A2000BD4680BD80B584B000AF78600B46FB708A
:105A3000FB7803F00F037A681279934201D90123AE
:105A400040E097F90330002B0EDAFB7803F00702F1
:105A500013469B001344DB0010337A681344FB6049
:105A6000FB6801225A700EE0FB7803F00702134630
:105A70009B001344DB0003F5A8737A681344FB60B2
:105A8000FB6800225A70FB6800229A70FB7803F0D2
:105A90000703DAB2FB681A707B6893F89032012B27
:105AA00001D102230EE07B68012283F890227B68FB
:105AB0001B68F968184607F084FB7B68002283F8AE
:105AC0009022002318461037BD4680BD80B592B0A5
:105AD00000AF786033E37B681B68B3F844307B87A2
